{
  "contractName": "Pet_Contract",
  "abi": [
    {
      "inputs": [],
      "name": "petAge",
      "outputs": [
        {
          "internalType": "string",
          "name": "",
          "type": "string"
        }
      ],
      "stateMutability": "view",
      "type": "function"
    },
    {
      "inputs": [],
      "name": "petName",
      "outputs": [
        {
          "internalType": "string",
          "name": "",
          "type": "string"
        }
      ],
      "stateMutability": "view",
      "type": "function"
    },
    {
      "inputs": [],
      "name": "petOwner",
      "outputs": [
        {
          "internalType": "string",
          "name": "",
          "type": "string"
        }
      ],
      "stateMutability": "view",
      "type": "function"
    },
    {
      "inputs": [
        {
          "internalType": "string",
          "name": "newPetName",
          "type": "string"
        },
        {
          "internalType": "string",
          "name": "newPetOwner",
          "type": "string"
        },
        {
          "internalType": "string",
          "name": "newPetAge",
          "type": "string"
        }
      ],
      "name": "setPet",
      "outputs": [],
      "stateMutability": "nonpayable",
      "type": "function"
    },
    {
      "inputs": [],
      "name": "getPet",
      "outputs": [
        {
          "internalType": "string",
          "name": "",
          "type": "string"
        },
        {
          "internalType": "string",
          "name": "",
          "type": "string"
        },
        {
          "internalType": "string",
          "name": "",
          "type": "string"
        }
      ],
      "stateMutability": "view",
      "type": "function"
    }
  ],
  "bytecode": "0x608060405234801561001057600080fd5b506108d0806100206000396000f3fe608060405234801561001057600080fd5b50600436106100575760003560e01c80634b2c979c1461005c578063871c8c671461007a5780638cf3375d1461009857806390373d53146100b8578063be468181146100d4575b600080fd5b6100646100f2565b60405161007191906105dc565b60405180910390f35b610082610180565b60405161008f91906105dc565b60405180910390f35b6100a061020e565b6040516100af939291906105fe565b60405180910390f35b6100d260048036038101906100cd9190610793565b6103c8565b005b6100dc610412565b6040516100e991906105dc565b60405180910390f35b600080546100ff90610869565b80601f016020809104026020016040519081016040528092919081815260200182805461012b90610869565b80156101785780601f1061014d57610100808354040283529160200191610178565b820191906000526020600020905b81548152906001019060200180831161015b57829003601f168201915b505050505081565b6002805461018d90610869565b80601f01602080910402602001604051908101604052809291908181526020018280546101b990610869565b80156102065780601f106101db57610100808354040283529160200191610206565b820191906000526020600020905b8154815290600101906020018083116101e957829003601f168201915b505050505081565b606080606060026000600182805461022590610869565b80601f016020809104026020016040519081016040528092919081815260200182805461025190610869565b801561029e5780601f106102735761010080835404028352916020019161029e565b820191906000526020600020905b81548152906001019060200180831161028157829003601f168201915b505050505092508180546102b190610869565b80601f01602080910402602001604051908101604052809291908181526020018280546102dd90610869565b801561032a5780601f106102ff5761010080835404028352916020019161032a565b820191906000526020600020905b81548152906001019060200180831161030d57829003601f168201915b5050505050915080805461033d90610869565b80601f016020809104026020016040519081016040528092919081815260200182805461036990610869565b80156103b65780601f1061038b576101008083540402835291602001916103b6565b820191906000526020600020905b81548152906001019060200180831161039957829003601f168201915b50505050509050925092509250909192565b82600090805190602001906103de9291906104a0565b5081600190805190602001906103f59291906104a0565b50806002908051906020019061040c9291906104a0565b50505050565b6001805461041f90610869565b80601f016020809104026020016040519081016040528092919081815260200182805461044b90610869565b80156104985780601f1061046d57610100808354040283529160200191610498565b820191906000526020600020905b81548152906001019060200180831161047b57829003601f168201915b505050505081565b8280546104ac90610869565b90600052602060002090601f0160209004810192826104ce5760008555610515565b82601f106104e757805160ff1916838001178555610515565b82800160010185558215610515579182015b828111156105145782518255916020019190600101906104f9565b5b5090506105229190610526565b5090565b5b8082111561053f576000816000905550600101610527565b5090565b600081519050919050565b600082825260208201905092915050565b60005b8381101561057d578082015181840152602081019050610562565b8381111561058c576000848401525b50505050565b6000601f19601f8301169050919050565b60006105ae82610543565b6105b8818561054e565b93506105c881856020860161055f565b6105d181610592565b840191505092915050565b600060208201905081810360008301526105f681846105a3565b905092915050565b6000606082019050818103600083015261061881866105a3565b9050818103602083015261062c81856105a3565b9050818103604083015261064081846105a3565b9050949350505050565b6000604051905090565b600080fd5b600080fd5b600080fd5b600080fd5b7f4e487b7100000000000000000000000000000000000000000000000000000000600052604160045260246000fd5b6106a082610592565b810181811067ffffffffffffffff821117156106bf576106be610668565b5b80604052505050565b60006106d261064a565b90506106de8282610697565b919050565b600067ffffffffffffffff8211156106fe576106fd610668565b5b61070782610592565b9050602081019050919050565b82818337600083830152505050565b6000610736610731846106e3565b6106c8565b90508281526020810184848401111561075257610751610663565b5b61075d848285610714565b509392505050565b600082601f83011261077a5761077961065e565b5b813561078a848260208601610723565b91505092915050565b6000806000606084860312156107ac576107ab610654565b5b600084013567ffffffffffffffff8111156107ca576107c9610659565b5b6107d686828701610765565b935050602084013567ffffffffffffffff8111156107f7576107f6610659565b5b61080386828701610765565b925050604084013567ffffffffffffffff81111561082457610823610659565b5b61083086828701610765565b9150509250925092565b7f4e487b7100000000000000000000000000000000000000000000000000000000600052602260045260246000fd5b6000600282049050600182168061088157607f821691505b6020821081036108945761089361083a565b5b5091905056fea264697066735822122061858b27595e65dde3053985fc749fa0ff143d0f746821e1ca4e44aa07d31ed464736f6c634300080d0033",
  "immutableReferences": {},
  "source": "// SPDX-License-Identifier: MIT\npragma solidity ^ 0.8.13;\n\n// 1. Creating a new pet contract\ncontract Pet_Contract{\n\n    // 2. Declaring our smart contract state variables\n    string public petName;\n    string public petOwner;\n    string public petAge;\n\n    // 3. Creating a set pet function\n    function setPet(\n        string memory newPetName,\n        string memory newPetOwner,\n        string memory newPetAge\n    ) public {\n        petName = newPetName;\n        petOwner = newPetOwner;\n        petAge = newPetAge;\n    }\n\n    // 4. Creating a fetch pet function\n    function getPet() public view returns (\n        string memory,\n        string memory,\n        string memory\n    ){\n        return (petAge, petName, petOwner);\n    }\n}\n",
  "sourcePath": "/Users/achan/eth-mail/simple-storage/contracts/Pet_Contract.sol",
  "compiler": {
    "name": "solc",
    "version": "0.8.13+commit.abaa5c0e.Emscripten.clang"
  },
  "schemaVersion": "3.4.8",
  "updatedAt": "2022-07-12T08:09:25.058Z",
  "devdoc": {
    "kind": "dev",
    "methods": {},
    "version": 1
  },
  "userdoc": {
    "kind": "user",
    "methods": {},
    "version": 1
  }
}