{
  "contractName": "SimpleStorageTest",
  "abi": [
    {
      "anonymous": false,
      "inputs": [
        {
          "indexed": true,
          "internalType": "address",
          "name": "user",
          "type": "address"
        },
        {
          "indexed": false,
          "internalType": "uint256",
          "name": "etherAmount",
          "type": "uint256"
        },
        {
          "indexed": false,
          "internalType": "uint256",
          "name": "time",
          "type": "uint256"
        },
        {
          "indexed": false,
          "internalType": "string",
          "name": "log",
          "type": "string"
        }
      ],
      "name": "Deposit",
      "type": "event"
    },
    {
      "inputs": [],
      "name": "deposit",
      "outputs": [],
      "stateMutability": "payable",
      "type": "function"
    },
    {
      "inputs": [
        {
          "internalType": "uint256",
          "name": "x",
          "type": "uint256"
        }
      ],
      "name": "set",
      "outputs": [],
      "stateMutability": "nonpayable",
      "type": "function"
    },
    {
      "inputs": [],
      "name": "get",
      "outputs": [
        {
          "internalType": "uint256",
          "name": "",
          "type": "uint256"
        }
      ],
      "stateMutability": "view",
      "type": "function"
    }
  ],
  "bytecode": "0x608060405234801561001057600080fd5b5061025d806100206000396000f3fe6080604052600436106100345760003560e01c806360fe47b1146100395780636d4ce63c14610062578063d0e30db01461008d575b600080fd5b34801561004557600080fd5b50610060600480360381019061005b9190610137565b610097565b005b34801561006e57600080fd5b506100776100a1565b6040516100849190610173565b60405180910390f35b6100956100aa565b005b8060008190555050565b60008054905090565b3373ffffffffffffffffffffffffffffffffffffffff167fc3e7b26244f37ad8e358393dbc82881ada73f132a6b54c7624e72a6792f7976834426040516100f29291906101eb565b60405180910390a2565b600080fd5b6000819050919050565b61011481610101565b811461011f57600080fd5b50565b6000813590506101318161010b565b92915050565b60006020828403121561014d5761014c6100fc565b5b600061015b84828501610122565b91505092915050565b61016d81610101565b82525050565b60006020820190506101886000830184610164565b92915050565b600082825260208201905092915050565b7f777562616c756261647562647562000000000000000000000000000000000000600082015250565b60006101d5600e8361018e565b91506101e08261019f565b602082019050919050565b60006060820190506102006000830185610164565b61020d6020830184610164565b818103604083015261021e816101c8565b9050939250505056fea26469706673582212205469fd03cdfa849dd5e3943fb5cfde1867d8a980b6864ad85aa940e4fa097ab164736f6c634300080d0033",
  "immutableReferences": {},
  "source": "\ncontract SimpleStorageTest {\n    uint myVariable;\n\n    event Deposit(\n        address indexed user,\n        uint etherAmount,\n        uint time,\n        string log\n    );\n\n    function deposit() public payable {\n        emit Deposit(msg.sender, msg.value, block.timestamp, 'wubalubadubdub');\n    }\n\n    function set(uint x) public {\n        myVariable = x;\n    }\n    function get() view public returns (uint) {\n        return myVariable;\n    }\n}",
  "sourcePath": "/Users/achan/eth-mail/simple-storage/contracts/SimpleStorageTest.sol",
  "compiler": {
    "name": "solc",
    "version": "0.8.13+commit.abaa5c0e.Emscripten.clang"
  },
  "schemaVersion": "3.4.8",
  "updatedAt": "2022-07-12T08:09:25.061Z",
  "devdoc": {
    "kind": "dev",
    "methods": {},
    "version": 1
  },
  "userdoc": {
    "kind": "user",
    "methods": {},
    "version": 1
  }
}