{
	"contracts/EmailReceipt_Contract.sol": {
		"EmailReceipt_Contract": {
			"abi": [
				{
					"inputs": [
						{
							"internalType": "string",
							"name": "_email",
							"type": "string"
						},
						{
							"internalType": "string",
							"name": "_acceptance",
							"type": "string"
						},
						{
							"internalType": "string",
							"name": "_timeStampResponse",
							"type": "string"
						}
					],
					"stateMutability": "nonpayable",
					"type": "constructor"
				},
				{
					"inputs": [],
					"name": "acceptance",
					"outputs": [
						{
							"internalType": "string",
							"name": "",
							"type": "string"
						}
					],
					"stateMutability": "view",
					"type": "function"
				},
				{
					"inputs": [],
					"name": "email",
					"outputs": [
						{
							"internalType": "string",
							"name": "",
							"type": "string"
						}
					],
					"stateMutability": "view",
					"type": "function"
				},
				{
					"inputs": [],
					"name": "getEmailReceipt",
					"outputs": [
						{
							"internalType": "string",
							"name": "",
							"type": "string"
						},
						{
							"internalType": "string",
							"name": "",
							"type": "string"
						},
						{
							"internalType": "string",
							"name": "",
							"type": "string"
						}
					],
					"stateMutability": "view",
					"type": "function"
				},
				{
					"inputs": [
						{
							"internalType": "string",
							"name": "newEmail",
							"type": "string"
						},
						{
							"internalType": "string",
							"name": "newAcceptance",
							"type": "string"
						},
						{
							"internalType": "string",
							"name": "newTimeStampResponse",
							"type": "string"
						}
					],
					"name": "setEmailReceipt",
					"outputs": [],
					"stateMutability": "nonpayable",
					"type": "function"
				},
				{
					"inputs": [],
					"name": "timeStampResponse",
					"outputs": [
						{
							"internalType": "string",
							"name": "",
							"type": "string"
						}
					],
					"stateMutability": "view",
					"type": "function"
				}
			],
			"devdoc": {
				"kind": "dev",
				"methods": {},
				"version": 1
			},
			"evm": {
				"assembly": "    /* \"contracts/EmailReceipt_Contract.sol\":89:1125  contract EmailReceipt_Contract{... */\n  mstore(0x40, 0x80)\n    /* \"contracts/EmailReceipt_Contract.sol\":273:587  constructor(... */\n  callvalue\n  dup1\n  iszero\n  tag_1\n  jumpi\n  0x00\n  dup1\n  revert\ntag_1:\n  pop\n  mload(0x40)\n  sub(codesize, bytecodeSize)\n  dup1\n  bytecodeSize\n  dup4\n  codecopy\n  dup2\n  dup2\n  add\n  0x40\n  mstore\n  dup2\n  add\n  swap1\n  tag_2\n  swap2\n  swap1\n  tag_3\n  jump\t// in\ntag_2:\n    /* \"contracts/EmailReceipt_Contract.sol\":492:498  _email */\n  dup3\n    /* \"contracts/EmailReceipt_Contract.sol\":484:489  email */\n  0x00\n    /* \"contracts/EmailReceipt_Contract.sol\":484:498  email = _email */\n  swap1\n  dup2\n  tag_6\n  swap2\n  swap1\n  tag_7\n  jump\t// in\ntag_6:\n  pop\n    /* \"contracts/EmailReceipt_Contract.sol\":521:532  _acceptance */\n  dup2\n    /* \"contracts/EmailReceipt_Contract.sol\":508:518  acceptance */\n  0x01\n    /* \"contracts/EmailReceipt_Contract.sol\":508:532  acceptance = _acceptance */\n  swap1\n  dup2\n  tag_8\n  swap2\n  swap1\n  tag_7\n  jump\t// in\ntag_8:\n  pop\n    /* \"contracts/EmailReceipt_Contract.sol\":562:580  _timeStampResponse */\n  dup1\n    /* \"contracts/EmailReceipt_Contract.sol\":542:559  timeStampResponse */\n  0x02\n    /* \"contracts/EmailReceipt_Contract.sol\":542:580  timeStampResponse = _timeStampResponse */\n  swap1\n  dup2\n  tag_9\n  swap2\n  swap1\n  tag_7\n  jump\t// in\ntag_9:\n  pop\n    /* \"contracts/EmailReceipt_Contract.sol\":273:587  constructor(... */\n  pop\n  pop\n  pop\n    /* \"contracts/EmailReceipt_Contract.sol\":89:1125  contract EmailReceipt_Contract{... */\n  jump(tag_10)\n    /* \"#utility.yul\":7:82   */\ntag_11:\n    /* \"#utility.yul\":40:46   */\n  0x00\n    /* \"#utility.yul\":73:75   */\n  0x40\n    /* \"#utility.yul\":67:76   */\n  mload\n    /* \"#utility.yul\":57:76   */\n  swap1\n  pop\n    /* \"#utility.yul\":7:82   */\n  swap1\n  jump\t// out\n    /* \"#utility.yul\":88:205   */\ntag_12:\n    /* \"#utility.yul\":197:198   */\n  0x00\n    /* \"#utility.yul\":194:195   */\n  dup1\n    /* \"#utility.yul\":187:199   */\n  revert\n    /* \"#utility.yul\":211:328   */\ntag_13:\n    /* \"#utility.yul\":320:321   */\n  0x00\n    /* \"#utility.yul\":317:318   */\n  dup1\n    /* \"#utility.yul\":310:322   */\n  revert\n    /* \"#utility.yul\":334:451   */\ntag_14:\n    /* \"#utility.yul\":443:444   */\n  0x00\n    /* \"#utility.yul\":440:441   */\n  dup1\n    /* \"#utility.yul\":433:445   */\n  revert\n    /* \"#utility.yul\":457:574   */\ntag_15:\n    /* \"#utility.yul\":566:567   */\n  0x00\n    /* \"#utility.yul\":563:564   */\n  dup1\n    /* \"#utility.yul\":556:568   */\n  revert\n    /* \"#utility.yul\":580:682   */\ntag_16:\n    /* \"#utility.yul\":621:627   */\n  0x00\n    /* \"#utility.yul\":672:674   */\n  0x1f\n    /* \"#utility.yul\":668:675   */\n  not\n    /* \"#utility.yul\":663:665   */\n  0x1f\n    /* \"#utility.yul\":656:661   */\n  dup4\n    /* \"#utility.yul\":652:666   */\n  add\n    /* \"#utility.yul\":648:676   */\n  and\n    /* \"#utility.yul\":638:676   */\n  swap1\n  pop\n    /* \"#utility.yul\":580:682   */\n  swap2\n  swap1\n  pop\n  jump\t// out\n    /* \"#utility.yul\":688:868   */\ntag_17:\n    /* \"#utility.yul\":736:813   */\n  0x4e487b7100000000000000000000000000000000000000000000000000000000\n    /* \"#utility.yul\":733:734   */\n  0x00\n    /* \"#utility.yul\":726:814   */\n  mstore\n    /* \"#utility.yul\":833:837   */\n  0x41\n    /* \"#utility.yul\":830:831   */\n  0x04\n    /* \"#utility.yul\":823:838   */\n  mstore\n    /* \"#utility.yul\":857:861   */\n  0x24\n    /* \"#utility.yul\":854:855   */\n  0x00\n    /* \"#utility.yul\":847:862   */\n  revert\n    /* \"#utility.yul\":874:1155   */\ntag_18:\n    /* \"#utility.yul\":957:984   */\n  tag_52\n    /* \"#utility.yul\":979:983   */\n  dup3\n    /* \"#utility.yul\":957:984   */\n  tag_16\n  jump\t// in\ntag_52:\n    /* \"#utility.yul\":949:955   */\n  dup2\n    /* \"#utility.yul\":945:985   */\n  add\n    /* \"#utility.yul\":1087:1093   */\n  dup2\n    /* \"#utility.yul\":1075:1085   */\n  dup2\n    /* \"#utility.yul\":1072:1094   */\n  lt\n    /* \"#utility.yul\":1051:1069   */\n  0xffffffffffffffff\n    /* \"#utility.yul\":1039:1049   */\n  dup3\n    /* \"#utility.yul\":1036:1070   */\n  gt\n    /* \"#utility.yul\":1033:1095   */\n  or\n    /* \"#utility.yul\":1030:1118   */\n  iszero\n  tag_53\n  jumpi\n    /* \"#utility.yul\":1098:1116   */\n  tag_54\n  tag_17\n  jump\t// in\ntag_54:\n    /* \"#utility.yul\":1030:1118   */\ntag_53:\n    /* \"#utility.yul\":1138:1148   */\n  dup1\n    /* \"#utility.yul\":1134:1136   */\n  0x40\n    /* \"#utility.yul\":1127:1149   */\n  mstore\n    /* \"#utility.yul\":917:1155   */\n  pop\n    /* \"#utility.yul\":874:1155   */\n  pop\n  pop\n  jump\t// out\n    /* \"#utility.yul\":1161:1290   */\ntag_19:\n    /* \"#utility.yul\":1195:1201   */\n  0x00\n    /* \"#utility.yul\":1222:1242   */\n  tag_56\n  tag_11\n  jump\t// in\ntag_56:\n    /* \"#utility.yul\":1212:1242   */\n  swap1\n  pop\n    /* \"#utility.yul\":1251:1284   */\n  tag_57\n    /* \"#utility.yul\":1279:1283   */\n  dup3\n    /* \"#utility.yul\":1271:1277   */\n  dup3\n    /* \"#utility.yul\":1251:1284   */\n  tag_18\n  jump\t// in\ntag_57:\n    /* \"#utility.yul\":1161:1290   */\n  swap2\n  swap1\n  pop\n  jump\t// out\n    /* \"#utility.yul\":1296:1604   */\ntag_20:\n    /* \"#utility.yul\":1358:1362   */\n  0x00\n    /* \"#utility.yul\":1448:1466   */\n  0xffffffffffffffff\n    /* \"#utility.yul\":1440:1446   */\n  dup3\n    /* \"#utility.yul\":1437:1467   */\n  gt\n    /* \"#utility.yul\":1434:1490   */\n  iszero\n  tag_59\n  jumpi\n    /* \"#utility.yul\":1470:1488   */\n  tag_60\n  tag_17\n  jump\t// in\ntag_60:\n    /* \"#utility.yul\":1434:1490   */\ntag_59:\n    /* \"#utility.yul\":1508:1537   */\n  tag_61\n    /* \"#utility.yul\":1530:1536   */\n  dup3\n    /* \"#utility.yul\":1508:1537   */\n  tag_16\n  jump\t// in\ntag_61:\n    /* \"#utility.yul\":1500:1537   */\n  swap1\n  pop\n    /* \"#utility.yul\":1592:1596   */\n  0x20\n    /* \"#utility.yul\":1586:1590   */\n  dup2\n    /* \"#utility.yul\":1582:1597   */\n  add\n    /* \"#utility.yul\":1574:1597   */\n  swap1\n  pop\n    /* \"#utility.yul\":1296:1604   */\n  swap2\n  swap1\n  pop\n  jump\t// out\n    /* \"#utility.yul\":1610:1917   */\ntag_21:\n    /* \"#utility.yul\":1678:1679   */\n  0x00\n    /* \"#utility.yul\":1688:1801   */\ntag_63:\n    /* \"#utility.yul\":1702:1708   */\n  dup4\n    /* \"#utility.yul\":1699:1700   */\n  dup2\n    /* \"#utility.yul\":1696:1709   */\n  lt\n    /* \"#utility.yul\":1688:1801   */\n  iszero\n  tag_65\n  jumpi\n    /* \"#utility.yul\":1787:1788   */\n  dup1\n    /* \"#utility.yul\":1782:1785   */\n  dup3\n    /* \"#utility.yul\":1778:1789   */\n  add\n    /* \"#utility.yul\":1772:1790   */\n  mload\n    /* \"#utility.yul\":1768:1769   */\n  dup2\n    /* \"#utility.yul\":1763:1766   */\n  dup5\n    /* \"#utility.yul\":1759:1770   */\n  add\n    /* \"#utility.yul\":1752:1791   */\n  mstore\n    /* \"#utility.yul\":1724:1726   */\n  0x20\n    /* \"#utility.yul\":1721:1722   */\n  dup2\n    /* \"#utility.yul\":1717:1727   */\n  add\n    /* \"#utility.yul\":1712:1727   */\n  swap1\n  pop\n    /* \"#utility.yul\":1688:1801   */\n  jump(tag_63)\ntag_65:\n    /* \"#utility.yul\":1819:1825   */\n  dup4\n    /* \"#utility.yul\":1816:1817   */\n  dup2\n    /* \"#utility.yul\":1813:1826   */\n  gt\n    /* \"#utility.yul\":1810:1911   */\n  iszero\n  tag_66\n  jumpi\n    /* \"#utility.yul\":1899:1900   */\n  0x00\n    /* \"#utility.yul\":1890:1896   */\n  dup5\n    /* \"#utility.yul\":1885:1888   */\n  dup5\n    /* \"#utility.yul\":1881:1897   */\n  add\n    /* \"#utility.yul\":1874:1901   */\n  mstore\n    /* \"#utility.yul\":1810:1911   */\ntag_66:\n    /* \"#utility.yul\":1659:1917   */\n  pop\n    /* \"#utility.yul\":1610:1917   */\n  pop\n  pop\n  pop\n  jump\t// out\n    /* \"#utility.yul\":1923:2344   */\ntag_22:\n    /* \"#utility.yul\":2012:2017   */\n  0x00\n    /* \"#utility.yul\":2037:2103   */\n  tag_68\n    /* \"#utility.yul\":2053:2102   */\n  tag_69\n    /* \"#utility.yul\":2095:2101   */\n  dup5\n    /* \"#utility.yul\":2053:2102   */\n  tag_20\n  jump\t// in\ntag_69:\n    /* \"#utility.yul\":2037:2103   */\n  tag_19\n  jump\t// in\ntag_68:\n    /* \"#utility.yul\":2028:2103   */\n  swap1\n  pop\n    /* \"#utility.yul\":2126:2132   */\n  dup3\n    /* \"#utility.yul\":2119:2124   */\n  dup2\n    /* \"#utility.yul\":2112:2133   */\n  mstore\n    /* \"#utility.yul\":2164:2168   */\n  0x20\n    /* \"#utility.yul\":2157:2162   */\n  dup2\n    /* \"#utility.yul\":2153:2169   */\n  add\n    /* \"#utility.yul\":2202:2205   */\n  dup5\n    /* \"#utility.yul\":2193:2199   */\n  dup5\n    /* \"#utility.yul\":2188:2191   */\n  dup5\n    /* \"#utility.yul\":2184:2200   */\n  add\n    /* \"#utility.yul\":2181:2206   */\n  gt\n    /* \"#utility.yul\":2178:2290   */\n  iszero\n  tag_70\n  jumpi\n    /* \"#utility.yul\":2209:2288   */\n  tag_71\n  tag_15\n  jump\t// in\ntag_71:\n    /* \"#utility.yul\":2178:2290   */\ntag_70:\n    /* \"#utility.yul\":2299:2338   */\n  tag_72\n    /* \"#utility.yul\":2331:2337   */\n  dup5\n    /* \"#utility.yul\":2326:2329   */\n  dup3\n    /* \"#utility.yul\":2321:2324   */\n  dup6\n    /* \"#utility.yul\":2299:2338   */\n  tag_21\n  jump\t// in\ntag_72:\n    /* \"#utility.yul\":2018:2344   */\n  pop\n    /* \"#utility.yul\":1923:2344   */\n  swap4\n  swap3\n  pop\n  pop\n  pop\n  jump\t// out\n    /* \"#utility.yul\":2364:2719   */\ntag_23:\n    /* \"#utility.yul\":2431:2436   */\n  0x00\n    /* \"#utility.yul\":2480:2483   */\n  dup3\n    /* \"#utility.yul\":2473:2477   */\n  0x1f\n    /* \"#utility.yul\":2465:2471   */\n  dup4\n    /* \"#utility.yul\":2461:2478   */\n  add\n    /* \"#utility.yul\":2457:2484   */\n  slt\n    /* \"#utility.yul\":2447:2569   */\n  tag_74\n  jumpi\n    /* \"#utility.yul\":2488:2567   */\n  tag_75\n  tag_14\n  jump\t// in\ntag_75:\n    /* \"#utility.yul\":2447:2569   */\ntag_74:\n    /* \"#utility.yul\":2598:2604   */\n  dup2\n    /* \"#utility.yul\":2592:2605   */\n  mload\n    /* \"#utility.yul\":2623:2713   */\n  tag_76\n    /* \"#utility.yul\":2709:2712   */\n  dup5\n    /* \"#utility.yul\":2701:2707   */\n  dup3\n    /* \"#utility.yul\":2694:2698   */\n  0x20\n    /* \"#utility.yul\":2686:2692   */\n  dup7\n    /* \"#utility.yul\":2682:2699   */\n  add\n    /* \"#utility.yul\":2623:2713   */\n  tag_22\n  jump\t// in\ntag_76:\n    /* \"#utility.yul\":2614:2713   */\n  swap2\n  pop\n    /* \"#utility.yul\":2437:2719   */\n  pop\n    /* \"#utility.yul\":2364:2719   */\n  swap3\n  swap2\n  pop\n  pop\n  jump\t// out\n    /* \"#utility.yul\":2725:3907   */\ntag_3:\n    /* \"#utility.yul\":2843:2849   */\n  0x00\n    /* \"#utility.yul\":2851:2857   */\n  dup1\n    /* \"#utility.yul\":2859:2865   */\n  0x00\n    /* \"#utility.yul\":2908:2910   */\n  0x60\n    /* \"#utility.yul\":2896:2905   */\n  dup5\n    /* \"#utility.yul\":2887:2894   */\n  dup7\n    /* \"#utility.yul\":2883:2906   */\n  sub\n    /* \"#utility.yul\":2879:2911   */\n  slt\n    /* \"#utility.yul\":2876:2995   */\n  iszero\n  tag_78\n  jumpi\n    /* \"#utility.yul\":2914:2993   */\n  tag_79\n  tag_12\n  jump\t// in\ntag_79:\n    /* \"#utility.yul\":2876:2995   */\ntag_78:\n    /* \"#utility.yul\":3055:3056   */\n  0x00\n    /* \"#utility.yul\":3044:3053   */\n  dup5\n    /* \"#utility.yul\":3040:3057   */\n  add\n    /* \"#utility.yul\":3034:3058   */\n  mload\n    /* \"#utility.yul\":3085:3103   */\n  0xffffffffffffffff\n    /* \"#utility.yul\":3077:3083   */\n  dup2\n    /* \"#utility.yul\":3074:3104   */\n  gt\n    /* \"#utility.yul\":3071:3188   */\n  iszero\n  tag_80\n  jumpi\n    /* \"#utility.yul\":3107:3186   */\n  tag_81\n  tag_13\n  jump\t// in\ntag_81:\n    /* \"#utility.yul\":3071:3188   */\ntag_80:\n    /* \"#utility.yul\":3212:3286   */\n  tag_82\n    /* \"#utility.yul\":3278:3285   */\n  dup7\n    /* \"#utility.yul\":3269:3275   */\n  dup3\n    /* \"#utility.yul\":3258:3267   */\n  dup8\n    /* \"#utility.yul\":3254:3276   */\n  add\n    /* \"#utility.yul\":3212:3286   */\n  tag_23\n  jump\t// in\ntag_82:\n    /* \"#utility.yul\":3202:3286   */\n  swap4\n  pop\n    /* \"#utility.yul\":3005:3296   */\n  pop\n    /* \"#utility.yul\":3356:3358   */\n  0x20\n    /* \"#utility.yul\":3345:3354   */\n  dup5\n    /* \"#utility.yul\":3341:3359   */\n  add\n    /* \"#utility.yul\":3335:3360   */\n  mload\n    /* \"#utility.yul\":3387:3405   */\n  0xffffffffffffffff\n    /* \"#utility.yul\":3379:3385   */\n  dup2\n    /* \"#utility.yul\":3376:3406   */\n  gt\n    /* \"#utility.yul\":3373:3490   */\n  iszero\n  tag_83\n  jumpi\n    /* \"#utility.yul\":3409:3488   */\n  tag_84\n  tag_13\n  jump\t// in\ntag_84:\n    /* \"#utility.yul\":3373:3490   */\ntag_83:\n    /* \"#utility.yul\":3514:3588   */\n  tag_85\n    /* \"#utility.yul\":3580:3587   */\n  dup7\n    /* \"#utility.yul\":3571:3577   */\n  dup3\n    /* \"#utility.yul\":3560:3569   */\n  dup8\n    /* \"#utility.yul\":3556:3578   */\n  add\n    /* \"#utility.yul\":3514:3588   */\n  tag_23\n  jump\t// in\ntag_85:\n    /* \"#utility.yul\":3504:3588   */\n  swap3\n  pop\n    /* \"#utility.yul\":3306:3598   */\n  pop\n    /* \"#utility.yul\":3658:3660   */\n  0x40\n    /* \"#utility.yul\":3647:3656   */\n  dup5\n    /* \"#utility.yul\":3643:3661   */\n  add\n    /* \"#utility.yul\":3637:3662   */\n  mload\n    /* \"#utility.yul\":3689:3707   */\n  0xffffffffffffffff\n    /* \"#utility.yul\":3681:3687   */\n  dup2\n    /* \"#utility.yul\":3678:3708   */\n  gt\n    /* \"#utility.yul\":3675:3792   */\n  iszero\n  tag_86\n  jumpi\n    /* \"#utility.yul\":3711:3790   */\n  tag_87\n  tag_13\n  jump\t// in\ntag_87:\n    /* \"#utility.yul\":3675:3792   */\ntag_86:\n    /* \"#utility.yul\":3816:3890   */\n  tag_88\n    /* \"#utility.yul\":3882:3889   */\n  dup7\n    /* \"#utility.yul\":3873:3879   */\n  dup3\n    /* \"#utility.yul\":3862:3871   */\n  dup8\n    /* \"#utility.yul\":3858:3880   */\n  add\n    /* \"#utility.yul\":3816:3890   */\n  tag_23\n  jump\t// in\ntag_88:\n    /* \"#utility.yul\":3806:3890   */\n  swap2\n  pop\n    /* \"#utility.yul\":3608:3900   */\n  pop\n    /* \"#utility.yul\":2725:3907   */\n  swap3\n  pop\n  swap3\n  pop\n  swap3\n  jump\t// out\n    /* \"#utility.yul\":3913:4012   */\ntag_24:\n    /* \"#utility.yul\":3965:3971   */\n  0x00\n    /* \"#utility.yul\":3999:4004   */\n  dup2\n    /* \"#utility.yul\":3993:4005   */\n  mload\n    /* \"#utility.yul\":3983:4005   */\n  swap1\n  pop\n    /* \"#utility.yul\":3913:4012   */\n  swap2\n  swap1\n  pop\n  jump\t// out\n    /* \"#utility.yul\":4018:4198   */\ntag_25:\n    /* \"#utility.yul\":4066:4143   */\n  0x4e487b7100000000000000000000000000000000000000000000000000000000\n    /* \"#utility.yul\":4063:4064   */\n  0x00\n    /* \"#utility.yul\":4056:4144   */\n  mstore\n    /* \"#utility.yul\":4163:4167   */\n  0x22\n    /* \"#utility.yul\":4160:4161   */\n  0x04\n    /* \"#utility.yul\":4153:4168   */\n  mstore\n    /* \"#utility.yul\":4187:4191   */\n  0x24\n    /* \"#utility.yul\":4184:4185   */\n  0x00\n    /* \"#utility.yul\":4177:4192   */\n  revert\n    /* \"#utility.yul\":4204:4524   */\ntag_26:\n    /* \"#utility.yul\":4248:4254   */\n  0x00\n    /* \"#utility.yul\":4285:4286   */\n  0x02\n    /* \"#utility.yul\":4279:4283   */\n  dup3\n    /* \"#utility.yul\":4275:4287   */\n  div\n    /* \"#utility.yul\":4265:4287   */\n  swap1\n  pop\n    /* \"#utility.yul\":4332:4333   */\n  0x01\n    /* \"#utility.yul\":4326:4330   */\n  dup3\n    /* \"#utility.yul\":4322:4334   */\n  and\n    /* \"#utility.yul\":4353:4371   */\n  dup1\n    /* \"#utility.yul\":4343:4424   */\n  tag_92\n  jumpi\n    /* \"#utility.yul\":4409:4413   */\n  0x7f\n    /* \"#utility.yul\":4401:4407   */\n  dup3\n    /* \"#utility.yul\":4397:4414   */\n  and\n    /* \"#utility.yul\":4387:4414   */\n  swap2\n  pop\n    /* \"#utility.yul\":4343:4424   */\ntag_92:\n    /* \"#utility.yul\":4471:4473   */\n  0x20\n    /* \"#utility.yul\":4463:4469   */\n  dup3\n    /* \"#utility.yul\":4460:4474   */\n  lt\n    /* \"#utility.yul\":4440:4458   */\n  dup2\n    /* \"#utility.yul\":4437:4475   */\n  sub\n    /* \"#utility.yul\":4434:4518   */\n  tag_93\n  jumpi\n    /* \"#utility.yul\":4490:4508   */\n  tag_94\n  tag_25\n  jump\t// in\ntag_94:\n    /* \"#utility.yul\":4434:4518   */\ntag_93:\n    /* \"#utility.yul\":4255:4524   */\n  pop\n    /* \"#utility.yul\":4204:4524   */\n  swap2\n  swap1\n  pop\n  jump\t// out\n    /* \"#utility.yul\":4530:4671   */\ntag_27:\n    /* \"#utility.yul\":4579:4583   */\n  0x00\n    /* \"#utility.yul\":4602:4605   */\n  dup2\n    /* \"#utility.yul\":4594:4605   */\n  swap1\n  pop\n    /* \"#utility.yul\":4625:4628   */\n  dup2\n    /* \"#utility.yul\":4622:4623   */\n  0x00\n    /* \"#utility.yul\":4615:4629   */\n  mstore\n    /* \"#utility.yul\":4659:4663   */\n  0x20\n    /* \"#utility.yul\":4656:4657   */\n  0x00\n    /* \"#utility.yul\":4646:4664   */\n  keccak256\n    /* \"#utility.yul\":4638:4664   */\n  swap1\n  pop\n    /* \"#utility.yul\":4530:4671   */\n  swap2\n  swap1\n  pop\n  jump\t// out\n    /* \"#utility.yul\":4677:4770   */\ntag_28:\n    /* \"#utility.yul\":4714:4720   */\n  0x00\n    /* \"#utility.yul\":4761:4763   */\n  0x20\n    /* \"#utility.yul\":4756:4758   */\n  0x1f\n    /* \"#utility.yul\":4749:4754   */\n  dup4\n    /* \"#utility.yul\":4745:4759   */\n  add\n    /* \"#utility.yul\":4741:4764   */\n  div\n    /* \"#utility.yul\":4731:4764   */\n  swap1\n  pop\n    /* \"#utility.yul\":4677:4770   */\n  swap2\n  swap1\n  pop\n  jump\t// out\n    /* \"#utility.yul\":4776:4883   */\ntag_29:\n    /* \"#utility.yul\":4820:4828   */\n  0x00\n    /* \"#utility.yul\":4870:4875   */\n  dup3\n    /* \"#utility.yul\":4864:4868   */\n  dup3\n    /* \"#utility.yul\":4860:4876   */\n  shl\n    /* \"#utility.yul\":4839:4876   */\n  swap1\n  pop\n    /* \"#utility.yul\":4776:4883   */\n  swap3\n  swap2\n  pop\n  pop\n  jump\t// out\n    /* \"#utility.yul\":4889:5282   */\ntag_30:\n    /* \"#utility.yul\":4958:4964   */\n  0x00\n    /* \"#utility.yul\":5008:5009   */\n  0x08\n    /* \"#utility.yul\":4996:5006   */\n  dup4\n    /* \"#utility.yul\":4992:5010   */\n  mul\n    /* \"#utility.yul\":5031:5128   */\n  tag_99\n    /* \"#utility.yul\":5061:5127   */\n  0xffffffffffffffffffffffffffffffffffffffffffffffffffffffffffffffff\n    /* \"#utility.yul\":5050:5059   */\n  dup3\n    /* \"#utility.yul\":5031:5128   */\n  tag_29\n  jump\t// in\ntag_99:\n    /* \"#utility.yul\":5149:5188   */\n  tag_100\n    /* \"#utility.yul\":5179:5187   */\n  dup7\n    /* \"#utility.yul\":5168:5177   */\n  dup4\n    /* \"#utility.yul\":5149:5188   */\n  tag_29\n  jump\t// in\ntag_100:\n    /* \"#utility.yul\":5137:5188   */\n  swap6\n  pop\n    /* \"#utility.yul\":5221:5225   */\n  dup1\n    /* \"#utility.yul\":5217:5226   */\n  not\n    /* \"#utility.yul\":5210:5215   */\n  dup5\n    /* \"#utility.yul\":5206:5227   */\n  and\n    /* \"#utility.yul\":5197:5227   */\n  swap4\n  pop\n    /* \"#utility.yul\":5270:5274   */\n  dup1\n    /* \"#utility.yul\":5260:5268   */\n  dup7\n    /* \"#utility.yul\":5256:5275   */\n  and\n    /* \"#utility.yul\":5249:5254   */\n  dup5\n    /* \"#utility.yul\":5246:5276   */\n  or\n    /* \"#utility.yul\":5236:5276   */\n  swap3\n  pop\n    /* \"#utility.yul\":4965:5282   */\n  pop\n  pop\n    /* \"#utility.yul\":4889:5282   */\n  swap4\n  swap3\n  pop\n  pop\n  pop\n  jump\t// out\n    /* \"#utility.yul\":5288:5365   */\ntag_31:\n    /* \"#utility.yul\":5325:5332   */\n  0x00\n    /* \"#utility.yul\":5354:5359   */\n  dup2\n    /* \"#utility.yul\":5343:5359   */\n  swap1\n  pop\n    /* \"#utility.yul\":5288:5365   */\n  swap2\n  swap1\n  pop\n  jump\t// out\n    /* \"#utility.yul\":5371:5431   */\ntag_32:\n    /* \"#utility.yul\":5399:5402   */\n  0x00\n    /* \"#utility.yul\":5420:5425   */\n  dup2\n    /* \"#utility.yul\":5413:5425   */\n  swap1\n  pop\n    /* \"#utility.yul\":5371:5431   */\n  swap2\n  swap1\n  pop\n  jump\t// out\n    /* \"#utility.yul\":5437:5579   */\ntag_33:\n    /* \"#utility.yul\":5487:5496   */\n  0x00\n    /* \"#utility.yul\":5520:5573   */\n  tag_104\n    /* \"#utility.yul\":5538:5572   */\n  tag_105\n    /* \"#utility.yul\":5547:5571   */\n  tag_106\n    /* \"#utility.yul\":5565:5570   */\n  dup5\n    /* \"#utility.yul\":5547:5571   */\n  tag_31\n  jump\t// in\ntag_106:\n    /* \"#utility.yul\":5538:5572   */\n  tag_32\n  jump\t// in\ntag_105:\n    /* \"#utility.yul\":5520:5573   */\n  tag_31\n  jump\t// in\ntag_104:\n    /* \"#utility.yul\":5507:5573   */\n  swap1\n  pop\n    /* \"#utility.yul\":5437:5579   */\n  swap2\n  swap1\n  pop\n  jump\t// out\n    /* \"#utility.yul\":5585:5660   */\ntag_34:\n    /* \"#utility.yul\":5628:5631   */\n  0x00\n    /* \"#utility.yul\":5649:5654   */\n  dup2\n    /* \"#utility.yul\":5642:5654   */\n  swap1\n  pop\n    /* \"#utility.yul\":5585:5660   */\n  swap2\n  swap1\n  pop\n  jump\t// out\n    /* \"#utility.yul\":5666:5935   */\ntag_35:\n    /* \"#utility.yul\":5776:5815   */\n  tag_109\n    /* \"#utility.yul\":5807:5814   */\n  dup4\n    /* \"#utility.yul\":5776:5815   */\n  tag_33\n  jump\t// in\ntag_109:\n    /* \"#utility.yul\":5837:5928   */\n  tag_110\n    /* \"#utility.yul\":5886:5927   */\n  tag_111\n    /* \"#utility.yul\":5910:5926   */\n  dup3\n    /* \"#utility.yul\":5886:5927   */\n  tag_34\n  jump\t// in\ntag_111:\n    /* \"#utility.yul\":5878:5884   */\n  dup5\n    /* \"#utility.yul\":5871:5875   */\n  dup5\n    /* \"#utility.yul\":5865:5876   */\n  sload\n    /* \"#utility.yul\":5837:5928   */\n  tag_30\n  jump\t// in\ntag_110:\n    /* \"#utility.yul\":5831:5835   */\n  dup3\n    /* \"#utility.yul\":5824:5929   */\n  sstore\n    /* \"#utility.yul\":5742:5935   */\n  pop\n    /* \"#utility.yul\":5666:5935   */\n  pop\n  pop\n  pop\n  jump\t// out\n    /* \"#utility.yul\":5941:6014   */\ntag_36:\n    /* \"#utility.yul\":5986:5989   */\n  0x00\n    /* \"#utility.yul\":5941:6014   */\n  swap1\n  jump\t// out\n    /* \"#utility.yul\":6020:6209   */\ntag_37:\n    /* \"#utility.yul\":6097:6129   */\n  tag_114\n  tag_36\n  jump\t// in\ntag_114:\n    /* \"#utility.yul\":6138:6203   */\n  tag_115\n    /* \"#utility.yul\":6196:6202   */\n  dup2\n    /* \"#utility.yul\":6188:6194   */\n  dup5\n    /* \"#utility.yul\":6182:6186   */\n  dup5\n    /* \"#utility.yul\":6138:6203   */\n  tag_35\n  jump\t// in\ntag_115:\n    /* \"#utility.yul\":6073:6209   */\n  pop\n    /* \"#utility.yul\":6020:6209   */\n  pop\n  pop\n  jump\t// out\n    /* \"#utility.yul\":6215:6401   */\ntag_38:\n    /* \"#utility.yul\":6275:6395   */\ntag_117:\n    /* \"#utility.yul\":6292:6295   */\n  dup2\n    /* \"#utility.yul\":6285:6290   */\n  dup2\n    /* \"#utility.yul\":6282:6296   */\n  lt\n    /* \"#utility.yul\":6275:6395   */\n  iszero\n  tag_119\n  jumpi\n    /* \"#utility.yul\":6346:6385   */\n  tag_120\n    /* \"#utility.yul\":6383:6384   */\n  0x00\n    /* \"#utility.yul\":6376:6381   */\n  dup3\n    /* \"#utility.yul\":6346:6385   */\n  tag_37\n  jump\t// in\ntag_120:\n    /* \"#utility.yul\":6319:6320   */\n  0x01\n    /* \"#utility.yul\":6312:6317   */\n  dup2\n    /* \"#utility.yul\":6308:6321   */\n  add\n    /* \"#utility.yul\":6299:6321   */\n  swap1\n  pop\n    /* \"#utility.yul\":6275:6395   */\n  jump(tag_117)\ntag_119:\n    /* \"#utility.yul\":6215:6401   */\n  pop\n  pop\n  jump\t// out\n    /* \"#utility.yul\":6407:6950   */\ntag_39:\n    /* \"#utility.yul\":6508:6510   */\n  0x1f\n    /* \"#utility.yul\":6503:6506   */\n  dup3\n    /* \"#utility.yul\":6500:6511   */\n  gt\n    /* \"#utility.yul\":6497:6943   */\n  iszero\n  tag_122\n  jumpi\n    /* \"#utility.yul\":6542:6580   */\n  tag_123\n    /* \"#utility.yul\":6574:6579   */\n  dup2\n    /* \"#utility.yul\":6542:6580   */\n  tag_27\n  jump\t// in\ntag_123:\n    /* \"#utility.yul\":6626:6655   */\n  tag_124\n    /* \"#utility.yul\":6644:6654   */\n  dup5\n    /* \"#utility.yul\":6626:6655   */\n  tag_28\n  jump\t// in\ntag_124:\n    /* \"#utility.yul\":6616:6624   */\n  dup2\n    /* \"#utility.yul\":6612:6656   */\n  add\n    /* \"#utility.yul\":6809:6811   */\n  0x20\n    /* \"#utility.yul\":6797:6807   */\n  dup6\n    /* \"#utility.yul\":6794:6812   */\n  lt\n    /* \"#utility.yul\":6791:6840   */\n  iszero\n  tag_125\n  jumpi\n    /* \"#utility.yul\":6830:6838   */\n  dup2\n    /* \"#utility.yul\":6815:6838   */\n  swap1\n  pop\n    /* \"#utility.yul\":6791:6840   */\ntag_125:\n    /* \"#utility.yul\":6853:6933   */\n  tag_126\n    /* \"#utility.yul\":6909:6931   */\n  tag_127\n    /* \"#utility.yul\":6927:6930   */\n  dup6\n    /* \"#utility.yul\":6909:6931   */\n  tag_28\n  jump\t// in\ntag_127:\n    /* \"#utility.yul\":6899:6907   */\n  dup4\n    /* \"#utility.yul\":6895:6932   */\n  add\n    /* \"#utility.yul\":6882:6893   */\n  dup3\n    /* \"#utility.yul\":6853:6933   */\n  tag_38\n  jump\t// in\ntag_126:\n    /* \"#utility.yul\":6512:6943   */\n  pop\n  pop\n    /* \"#utility.yul\":6497:6943   */\ntag_122:\n    /* \"#utility.yul\":6407:6950   */\n  pop\n  pop\n  pop\n  jump\t// out\n    /* \"#utility.yul\":6956:7073   */\ntag_40:\n    /* \"#utility.yul\":7010:7018   */\n  0x00\n    /* \"#utility.yul\":7060:7065   */\n  dup3\n    /* \"#utility.yul\":7054:7058   */\n  dup3\n    /* \"#utility.yul\":7050:7066   */\n  shr\n    /* \"#utility.yul\":7029:7066   */\n  swap1\n  pop\n    /* \"#utility.yul\":6956:7073   */\n  swap3\n  swap2\n  pop\n  pop\n  jump\t// out\n    /* \"#utility.yul\":7079:7248   */\ntag_41:\n    /* \"#utility.yul\":7123:7129   */\n  0x00\n    /* \"#utility.yul\":7156:7207   */\n  tag_130\n    /* \"#utility.yul\":7204:7205   */\n  0x00\n    /* \"#utility.yul\":7200:7206   */\n  not\n    /* \"#utility.yul\":7192:7197   */\n  dup5\n    /* \"#utility.yul\":7189:7190   */\n  0x08\n    /* \"#utility.yul\":7185:7198   */\n  mul\n    /* \"#utility.yul\":7156:7207   */\n  tag_40\n  jump\t// in\ntag_130:\n    /* \"#utility.yul\":7152:7208   */\n  not\n    /* \"#utility.yul\":7237:7241   */\n  dup1\n    /* \"#utility.yul\":7231:7235   */\n  dup4\n    /* \"#utility.yul\":7227:7242   */\n  and\n    /* \"#utility.yul\":7217:7242   */\n  swap2\n  pop\n    /* \"#utility.yul\":7130:7248   */\n  pop\n    /* \"#utility.yul\":7079:7248   */\n  swap3\n  swap2\n  pop\n  pop\n  jump\t// out\n    /* \"#utility.yul\":7253:7548   */\ntag_42:\n    /* \"#utility.yul\":7329:7333   */\n  0x00\n    /* \"#utility.yul\":7475:7504   */\n  tag_132\n    /* \"#utility.yul\":7500:7503   */\n  dup4\n    /* \"#utility.yul\":7494:7498   */\n  dup4\n    /* \"#utility.yul\":7475:7504   */\n  tag_41\n  jump\t// in\ntag_132:\n    /* \"#utility.yul\":7467:7504   */\n  swap2\n  pop\n    /* \"#utility.yul\":7537:7540   */\n  dup3\n    /* \"#utility.yul\":7534:7535   */\n  0x02\n    /* \"#utility.yul\":7530:7541   */\n  mul\n    /* \"#utility.yul\":7524:7528   */\n  dup3\n    /* \"#utility.yul\":7521:7542   */\n  or\n    /* \"#utility.yul\":7513:7542   */\n  swap1\n  pop\n    /* \"#utility.yul\":7253:7548   */\n  swap3\n  swap2\n  pop\n  pop\n  jump\t// out\n    /* \"#utility.yul\":7553:8948   */\ntag_7:\n    /* \"#utility.yul\":7670:7707   */\n  tag_134\n    /* \"#utility.yul\":7703:7706   */\n  dup3\n    /* \"#utility.yul\":7670:7707   */\n  tag_24\n  jump\t// in\ntag_134:\n    /* \"#utility.yul\":7772:7790   */\n  0xffffffffffffffff\n    /* \"#utility.yul\":7764:7770   */\n  dup2\n    /* \"#utility.yul\":7761:7791   */\n  gt\n    /* \"#utility.yul\":7758:7814   */\n  iszero\n  tag_135\n  jumpi\n    /* \"#utility.yul\":7794:7812   */\n  tag_136\n  tag_17\n  jump\t// in\ntag_136:\n    /* \"#utility.yul\":7758:7814   */\ntag_135:\n    /* \"#utility.yul\":7838:7876   */\n  tag_137\n    /* \"#utility.yul\":7870:7874   */\n  dup3\n    /* \"#utility.yul\":7864:7875   */\n  sload\n    /* \"#utility.yul\":7838:7876   */\n  tag_26\n  jump\t// in\ntag_137:\n    /* \"#utility.yul\":7923:7990   */\n  tag_138\n    /* \"#utility.yul\":7983:7989   */\n  dup3\n    /* \"#utility.yul\":7975:7981   */\n  dup3\n    /* \"#utility.yul\":7969:7973   */\n  dup6\n    /* \"#utility.yul\":7923:7990   */\n  tag_39\n  jump\t// in\ntag_138:\n    /* \"#utility.yul\":8017:8018   */\n  0x00\n    /* \"#utility.yul\":8041:8045   */\n  0x20\n    /* \"#utility.yul\":8028:8045   */\n  swap1\n  pop\n    /* \"#utility.yul\":8073:8075   */\n  0x1f\n    /* \"#utility.yul\":8065:8071   */\n  dup4\n    /* \"#utility.yul\":8062:8076   */\n  gt\n    /* \"#utility.yul\":8090:8091   */\n  0x01\n    /* \"#utility.yul\":8085:8703   */\n  dup2\n  eq\n  tag_140\n  jumpi\n    /* \"#utility.yul\":8747:8748   */\n  0x00\n    /* \"#utility.yul\":8764:8770   */\n  dup5\n    /* \"#utility.yul\":8761:8838   */\n  iszero\n  tag_141\n  jumpi\n    /* \"#utility.yul\":8813:8822   */\n  dup3\n    /* \"#utility.yul\":8808:8811   */\n  dup8\n    /* \"#utility.yul\":8804:8823   */\n  add\n    /* \"#utility.yul\":8798:8824   */\n  mload\n    /* \"#utility.yul\":8789:8824   */\n  swap1\n  pop\n    /* \"#utility.yul\":8761:8838   */\ntag_141:\n    /* \"#utility.yul\":8864:8931   */\n  tag_142\n    /* \"#utility.yul\":8924:8930   */\n  dup6\n    /* \"#utility.yul\":8917:8922   */\n  dup3\n    /* \"#utility.yul\":8864:8931   */\n  tag_42\n  jump\t// in\ntag_142:\n    /* \"#utility.yul\":8858:8862   */\n  dup7\n    /* \"#utility.yul\":8851:8932   */\n  sstore\n    /* \"#utility.yul\":8720:8942   */\n  pop\n    /* \"#utility.yul\":8055:8942   */\n  jump(tag_139)\n    /* \"#utility.yul\":8085:8703   */\ntag_140:\n    /* \"#utility.yul\":8137:8141   */\n  0x1f\n    /* \"#utility.yul\":8133:8142   */\n  not\n    /* \"#utility.yul\":8125:8131   */\n  dup5\n    /* \"#utility.yul\":8121:8143   */\n  and\n    /* \"#utility.yul\":8171:8208   */\n  tag_143\n    /* \"#utility.yul\":8203:8207   */\n  dup7\n    /* \"#utility.yul\":8171:8208   */\n  tag_27\n  jump\t// in\ntag_143:\n    /* \"#utility.yul\":8230:8231   */\n  0x00\n    /* \"#utility.yul\":8244:8452   */\ntag_144:\n    /* \"#utility.yul\":8258:8265   */\n  dup3\n    /* \"#utility.yul\":8255:8256   */\n  dup2\n    /* \"#utility.yul\":8252:8266   */\n  lt\n    /* \"#utility.yul\":8244:8452   */\n  iszero\n  tag_146\n  jumpi\n    /* \"#utility.yul\":8337:8346   */\n  dup5\n    /* \"#utility.yul\":8332:8335   */\n  dup10\n    /* \"#utility.yul\":8328:8347   */\n  add\n    /* \"#utility.yul\":8322:8348   */\n  mload\n    /* \"#utility.yul\":8314:8320   */\n  dup3\n    /* \"#utility.yul\":8307:8349   */\n  sstore\n    /* \"#utility.yul\":8388:8389   */\n  0x01\n    /* \"#utility.yul\":8380:8386   */\n  dup3\n    /* \"#utility.yul\":8376:8390   */\n  add\n    /* \"#utility.yul\":8366:8390   */\n  swap2\n  pop\n    /* \"#utility.yul\":8435:8437   */\n  0x20\n    /* \"#utility.yul\":8424:8433   */\n  dup6\n    /* \"#utility.yul\":8420:8438   */\n  add\n    /* \"#utility.yul\":8407:8438   */\n  swap5\n  pop\n    /* \"#utility.yul\":8281:8285   */\n  0x20\n    /* \"#utility.yul\":8278:8279   */\n  dup2\n    /* \"#utility.yul\":8274:8286   */\n  add\n    /* \"#utility.yul\":8269:8286   */\n  swap1\n  pop\n    /* \"#utility.yul\":8244:8452   */\n  jump(tag_144)\ntag_146:\n    /* \"#utility.yul\":8480:8486   */\n  dup7\n    /* \"#utility.yul\":8471:8478   */\n  dup4\n    /* \"#utility.yul\":8468:8487   */\n  lt\n    /* \"#utility.yul\":8465:8644   */\n  iszero\n  tag_147\n  jumpi\n    /* \"#utility.yul\":8538:8547   */\n  dup5\n    /* \"#utility.yul\":8533:8536   */\n  dup10\n    /* \"#utility.yul\":8529:8548   */\n  add\n    /* \"#utility.yul\":8523:8549   */\n  mload\n    /* \"#utility.yul\":8581:8629   */\n  tag_148\n    /* \"#utility.yul\":8623:8627   */\n  0x1f\n    /* \"#utility.yul\":8615:8621   */\n  dup10\n    /* \"#utility.yul\":8611:8628   */\n  and\n    /* \"#utility.yul\":8600:8609   */\n  dup3\n    /* \"#utility.yul\":8581:8629   */\n  tag_41\n  jump\t// in\ntag_148:\n    /* \"#utility.yul\":8573:8579   */\n  dup4\n    /* \"#utility.yul\":8566:8630   */\n  sstore\n    /* \"#utility.yul\":8488:8644   */\n  pop\n    /* \"#utility.yul\":8465:8644   */\ntag_147:\n    /* \"#utility.yul\":8690:8691   */\n  0x01\n    /* \"#utility.yul\":8686:8687   */\n  0x02\n    /* \"#utility.yul\":8678:8684   */\n  dup9\n    /* \"#utility.yul\":8674:8688   */\n  mul\n    /* \"#utility.yul\":8670:8692   */\n  add\n    /* \"#utility.yul\":8664:8668   */\n  dup9\n    /* \"#utility.yul\":8657:8693   */\n  sstore\n    /* \"#utility.yul\":8092:8703   */\n  pop\n  pop\n  pop\n    /* \"#utility.yul\":8055:8942   */\ntag_139:\n  pop\n    /* \"#utility.yul\":7645:8948   */\n  pop\n  pop\n  pop\n    /* \"#utility.yul\":7553:8948   */\n  pop\n  pop\n  jump\t// out\n    /* \"contracts/EmailReceipt_Contract.sol\":89:1125  contract EmailReceipt_Contract{... */\ntag_10:\n  dataSize(sub_0)\n  dup1\n  dataOffset(sub_0)\n  0x00\n  codecopy\n  0x00\n  return\nstop\n\nsub_0: assembly {\n        /* \"contracts/EmailReceipt_Contract.sol\":89:1125  contract EmailReceipt_Contract{... */\n      mstore(0x40, 0x80)\n      callvalue\n      dup1\n      iszero\n      tag_1\n      jumpi\n      0x00\n      dup1\n      revert\n    tag_1:\n      pop\n      jumpi(tag_2, lt(calldatasize, 0x04))\n      shr(0xe0, calldataload(0x00))\n      dup1\n      0x6d736689\n      eq\n      tag_3\n      jumpi\n      dup1\n      0x820e93f5\n      eq\n      tag_4\n      jumpi\n      dup1\n      0x9749a2f0\n      eq\n      tag_5\n      jumpi\n      dup1\n      0xa6c83aa6\n      eq\n      tag_6\n      jumpi\n      dup1\n      0xe76fe515\n      eq\n      tag_7\n      jumpi\n    tag_2:\n      0x00\n      dup1\n      revert\n        /* \"contracts/EmailReceipt_Contract.sol\":205:229  string public acceptance */\n    tag_3:\n      tag_8\n      tag_9\n      jump\t// in\n    tag_8:\n      mload(0x40)\n      tag_10\n      swap2\n      swap1\n      tag_11\n      jump\t// in\n    tag_10:\n      mload(0x40)\n      dup1\n      swap2\n      sub\n      swap1\n      return\n        /* \"contracts/EmailReceipt_Contract.sol\":180:199  string public email */\n    tag_4:\n      tag_12\n      tag_13\n      jump\t// in\n    tag_12:\n      mload(0x40)\n      tag_14\n      swap2\n      swap1\n      tag_11\n      jump\t// in\n    tag_14:\n      mload(0x40)\n      dup1\n      swap2\n      sub\n      swap1\n      return\n        /* \"contracts/EmailReceipt_Contract.sol\":627:897  function setEmailReceipt(... */\n    tag_5:\n      tag_15\n      0x04\n      dup1\n      calldatasize\n      sub\n      dup2\n      add\n      swap1\n      tag_16\n      swap2\n      swap1\n      tag_17\n      jump\t// in\n    tag_16:\n      tag_18\n      jump\t// in\n    tag_15:\n      stop\n        /* \"contracts/EmailReceipt_Contract.sol\":235:266  string public timeStampResponse */\n    tag_6:\n      tag_19\n      tag_20\n      jump\t// in\n    tag_19:\n      mload(0x40)\n      tag_21\n      swap2\n      swap1\n      tag_11\n      jump\t// in\n    tag_21:\n      mload(0x40)\n      dup1\n      swap2\n      sub\n      swap1\n      return\n        /* \"contracts/EmailReceipt_Contract.sol\":939:1123  function getEmailReceipt() public view returns (... */\n    tag_7:\n      tag_22\n      tag_23\n      jump\t// in\n    tag_22:\n      mload(0x40)\n      tag_24\n      swap4\n      swap3\n      swap2\n      swap1\n      tag_25\n      jump\t// in\n    tag_24:\n      mload(0x40)\n      dup1\n      swap2\n      sub\n      swap1\n      return\n        /* \"contracts/EmailReceipt_Contract.sol\":205:229  string public acceptance */\n    tag_9:\n      0x01\n      dup1\n      sload\n      tag_26\n      swap1\n      tag_27\n      jump\t// in\n    tag_26:\n      dup1\n      0x1f\n      add\n      0x20\n      dup1\n      swap2\n      div\n      mul\n      0x20\n      add\n      mload(0x40)\n      swap1\n      dup2\n      add\n      0x40\n      mstore\n      dup1\n      swap3\n      swap2\n      swap1\n      dup2\n      dup2\n      mstore\n      0x20\n      add\n      dup3\n      dup1\n      sload\n      tag_28\n      swap1\n      tag_27\n      jump\t// in\n    tag_28:\n      dup1\n      iszero\n      tag_29\n      jumpi\n      dup1\n      0x1f\n      lt\n      tag_30\n      jumpi\n      0x0100\n      dup1\n      dup4\n      sload\n      div\n      mul\n      dup4\n      mstore\n      swap2\n      0x20\n      add\n      swap2\n      jump(tag_29)\n    tag_30:\n      dup3\n      add\n      swap2\n      swap1\n      0x00\n      mstore\n      keccak256(0x00, 0x20)\n      swap1\n    tag_31:\n      dup2\n      sload\n      dup2\n      mstore\n      swap1\n      0x01\n      add\n      swap1\n      0x20\n      add\n      dup1\n      dup4\n      gt\n      tag_31\n      jumpi\n      dup3\n      swap1\n      sub\n      0x1f\n      and\n      dup3\n      add\n      swap2\n    tag_29:\n      pop\n      pop\n      pop\n      pop\n      pop\n      dup2\n      jump\t// out\n        /* \"contracts/EmailReceipt_Contract.sol\":180:199  string public email */\n    tag_13:\n      0x00\n      dup1\n      sload\n      tag_32\n      swap1\n      tag_27\n      jump\t// in\n    tag_32:\n      dup1\n      0x1f\n      add\n      0x20\n      dup1\n      swap2\n      div\n      mul\n      0x20\n      add\n      mload(0x40)\n      swap1\n      dup2\n      add\n      0x40\n      mstore\n      dup1\n      swap3\n      swap2\n      swap1\n      dup2\n      dup2\n      mstore\n      0x20\n      add\n      dup3\n      dup1\n      sload\n      tag_33\n      swap1\n      tag_27\n      jump\t// in\n    tag_33:\n      dup1\n      iszero\n      tag_34\n      jumpi\n      dup1\n      0x1f\n      lt\n      tag_35\n      jumpi\n      0x0100\n      dup1\n      dup4\n      sload\n      div\n      mul\n      dup4\n      mstore\n      swap2\n      0x20\n      add\n      swap2\n      jump(tag_34)\n    tag_35:\n      dup3\n      add\n      swap2\n      swap1\n      0x00\n      mstore\n      keccak256(0x00, 0x20)\n      swap1\n    tag_36:\n      dup2\n      sload\n      dup2\n      mstore\n      swap1\n      0x01\n      add\n      swap1\n      0x20\n      add\n      dup1\n      dup4\n      gt\n      tag_36\n      jumpi\n      dup3\n      swap1\n      sub\n      0x1f\n      and\n      dup3\n      add\n      swap2\n    tag_34:\n      pop\n      pop\n      pop\n      pop\n      pop\n      dup2\n      jump\t// out\n        /* \"contracts/EmailReceipt_Contract.sol\":627:897  function setEmailReceipt(... */\n    tag_18:\n        /* \"contracts/EmailReceipt_Contract.sol\":796:804  newEmail */\n      dup3\n        /* \"contracts/EmailReceipt_Contract.sol\":788:793  email */\n      0x00\n        /* \"contracts/EmailReceipt_Contract.sol\":788:804  email = newEmail */\n      swap1\n      dup2\n      tag_38\n      swap2\n      swap1\n      tag_39\n      jump\t// in\n    tag_38:\n      pop\n        /* \"contracts/EmailReceipt_Contract.sol\":827:840  newAcceptance */\n      dup2\n        /* \"contracts/EmailReceipt_Contract.sol\":814:824  acceptance */\n      0x01\n        /* \"contracts/EmailReceipt_Contract.sol\":814:840  acceptance = newAcceptance */\n      swap1\n      dup2\n      tag_40\n      swap2\n      swap1\n      tag_39\n      jump\t// in\n    tag_40:\n      pop\n        /* \"contracts/EmailReceipt_Contract.sol\":870:890  newTimeStampResponse */\n      dup1\n        /* \"contracts/EmailReceipt_Contract.sol\":850:867  timeStampResponse */\n      0x02\n        /* \"contracts/EmailReceipt_Contract.sol\":850:890  timeStampResponse = newTimeStampResponse */\n      swap1\n      dup2\n      tag_41\n      swap2\n      swap1\n      tag_39\n      jump\t// in\n    tag_41:\n      pop\n        /* \"contracts/EmailReceipt_Contract.sol\":627:897  function setEmailReceipt(... */\n      pop\n      pop\n      pop\n      jump\t// out\n        /* \"contracts/EmailReceipt_Contract.sol\":235:266  string public timeStampResponse */\n    tag_20:\n      0x02\n      dup1\n      sload\n      tag_42\n      swap1\n      tag_27\n      jump\t// in\n    tag_42:\n      dup1\n      0x1f\n      add\n      0x20\n      dup1\n      swap2\n      div\n      mul\n      0x20\n      add\n      mload(0x40)\n      swap1\n      dup2\n      add\n      0x40\n      mstore\n      dup1\n      swap3\n      swap2\n      swap1\n      dup2\n      dup2\n      mstore\n      0x20\n      add\n      dup3\n      dup1\n      sload\n      tag_43\n      swap1\n      tag_27\n      jump\t// in\n    tag_43:\n      dup1\n      iszero\n      tag_44\n      jumpi\n      dup1\n      0x1f\n      lt\n      tag_45\n      jumpi\n      0x0100\n      dup1\n      dup4\n      sload\n      div\n      mul\n      dup4\n      mstore\n      swap2\n      0x20\n      add\n      swap2\n      jump(tag_44)\n    tag_45:\n      dup3\n      add\n      swap2\n      swap1\n      0x00\n      mstore\n      keccak256(0x00, 0x20)\n      swap1\n    tag_46:\n      dup2\n      sload\n      dup2\n      mstore\n      swap1\n      0x01\n      add\n      swap1\n      0x20\n      add\n      dup1\n      dup4\n      gt\n      tag_46\n      jumpi\n      dup3\n      swap1\n      sub\n      0x1f\n      and\n      dup3\n      add\n      swap2\n    tag_44:\n      pop\n      pop\n      pop\n      pop\n      pop\n      dup2\n      jump\t// out\n        /* \"contracts/EmailReceipt_Contract.sol\":939:1123  function getEmailReceipt() public view returns (... */\n    tag_23:\n        /* \"contracts/EmailReceipt_Contract.sol\":996:1009  string memory */\n      0x60\n        /* \"contracts/EmailReceipt_Contract.sol\":1019:1032  string memory */\n      dup1\n        /* \"contracts/EmailReceipt_Contract.sol\":1042:1055  string memory */\n      0x60\n        /* \"contracts/EmailReceipt_Contract.sol\":1079:1084  email */\n      0x00\n        /* \"contracts/EmailReceipt_Contract.sol\":1086:1096  acceptance */\n      0x01\n        /* \"contracts/EmailReceipt_Contract.sol\":1098:1115  timeStampResponse */\n      0x02\n        /* \"contracts/EmailReceipt_Contract.sol\":1071:1116  return (email, acceptance, timeStampResponse) */\n      dup3\n      dup1\n      sload\n      tag_48\n      swap1\n      tag_27\n      jump\t// in\n    tag_48:\n      dup1\n      0x1f\n      add\n      0x20\n      dup1\n      swap2\n      div\n      mul\n      0x20\n      add\n      mload(0x40)\n      swap1\n      dup2\n      add\n      0x40\n      mstore\n      dup1\n      swap3\n      swap2\n      swap1\n      dup2\n      dup2\n      mstore\n      0x20\n      add\n      dup3\n      dup1\n      sload\n      tag_49\n      swap1\n      tag_27\n      jump\t// in\n    tag_49:\n      dup1\n      iszero\n      tag_50\n      jumpi\n      dup1\n      0x1f\n      lt\n      tag_51\n      jumpi\n      0x0100\n      dup1\n      dup4\n      sload\n      div\n      mul\n      dup4\n      mstore\n      swap2\n      0x20\n      add\n      swap2\n      jump(tag_50)\n    tag_51:\n      dup3\n      add\n      swap2\n      swap1\n      0x00\n      mstore\n      keccak256(0x00, 0x20)\n      swap1\n    tag_52:\n      dup2\n      sload\n      dup2\n      mstore\n      swap1\n      0x01\n      add\n      swap1\n      0x20\n      add\n      dup1\n      dup4\n      gt\n      tag_52\n      jumpi\n      dup3\n      swap1\n      sub\n      0x1f\n      and\n      dup3\n      add\n      swap2\n    tag_50:\n      pop\n      pop\n      pop\n      pop\n      pop\n      swap3\n      pop\n      dup2\n      dup1\n      sload\n      tag_53\n      swap1\n      tag_27\n      jump\t// in\n    tag_53:\n      dup1\n      0x1f\n      add\n      0x20\n      dup1\n      swap2\n      div\n      mul\n      0x20\n      add\n      mload(0x40)\n      swap1\n      dup2\n      add\n      0x40\n      mstore\n      dup1\n      swap3\n      swap2\n      swap1\n      dup2\n      dup2\n      mstore\n      0x20\n      add\n      dup3\n      dup1\n      sload\n      tag_54\n      swap1\n      tag_27\n      jump\t// in\n    tag_54:\n      dup1\n      iszero\n      tag_55\n      jumpi\n      dup1\n      0x1f\n      lt\n      tag_56\n      jumpi\n      0x0100\n      dup1\n      dup4\n      sload\n      div\n      mul\n      dup4\n      mstore\n      swap2\n      0x20\n      add\n      swap2\n      jump(tag_55)\n    tag_56:\n      dup3\n      add\n      swap2\n      swap1\n      0x00\n      mstore\n      keccak256(0x00, 0x20)\n      swap1\n    tag_57:\n      dup2\n      sload\n      dup2\n      mstore\n      swap1\n      0x01\n      add\n      swap1\n      0x20\n      add\n      dup1\n      dup4\n      gt\n      tag_57\n      jumpi\n      dup3\n      swap1\n      sub\n      0x1f\n      and\n      dup3\n      add\n      swap2\n    tag_55:\n      pop\n      pop\n      pop\n      pop\n      pop\n      swap2\n      pop\n      dup1\n      dup1\n      sload\n      tag_58\n      swap1\n      tag_27\n      jump\t// in\n    tag_58:\n      dup1\n      0x1f\n      add\n      0x20\n      dup1\n      swap2\n      div\n      mul\n      0x20\n      add\n      mload(0x40)\n      swap1\n      dup2\n      add\n      0x40\n      mstore\n      dup1\n      swap3\n      swap2\n      swap1\n      dup2\n      dup2\n      mstore\n      0x20\n      add\n      dup3\n      dup1\n      sload\n      tag_59\n      swap1\n      tag_27\n      jump\t// in\n    tag_59:\n      dup1\n      iszero\n      tag_60\n      jumpi\n      dup1\n      0x1f\n      lt\n      tag_61\n      jumpi\n      0x0100\n      dup1\n      dup4\n      sload\n      div\n      mul\n      dup4\n      mstore\n      swap2\n      0x20\n      add\n      swap2\n      jump(tag_60)\n    tag_61:\n      dup3\n      add\n      swap2\n      swap1\n      0x00\n      mstore\n      keccak256(0x00, 0x20)\n      swap1\n    tag_62:\n      dup2\n      sload\n      dup2\n      mstore\n      swap1\n      0x01\n      add\n      swap1\n      0x20\n      add\n      dup1\n      dup4\n      gt\n      tag_62\n      jumpi\n      dup3\n      swap1\n      sub\n      0x1f\n      and\n      dup3\n      add\n      swap2\n    tag_60:\n      pop\n      pop\n      pop\n      pop\n      pop\n      swap1\n      pop\n      swap3\n      pop\n      swap3\n      pop\n      swap3\n      pop\n        /* \"contracts/EmailReceipt_Contract.sol\":939:1123  function getEmailReceipt() public view returns (... */\n      swap1\n      swap2\n      swap3\n      jump\t// out\n        /* \"#utility.yul\":7:106   */\n    tag_63:\n        /* \"#utility.yul\":59:65   */\n      0x00\n        /* \"#utility.yul\":93:98   */\n      dup2\n        /* \"#utility.yul\":87:99   */\n      mload\n        /* \"#utility.yul\":77:99   */\n      swap1\n      pop\n        /* \"#utility.yul\":7:106   */\n      swap2\n      swap1\n      pop\n      jump\t// out\n        /* \"#utility.yul\":112:281   */\n    tag_64:\n        /* \"#utility.yul\":196:207   */\n      0x00\n        /* \"#utility.yul\":230:236   */\n      dup3\n        /* \"#utility.yul\":225:228   */\n      dup3\n        /* \"#utility.yul\":218:237   */\n      mstore\n        /* \"#utility.yul\":270:274   */\n      0x20\n        /* \"#utility.yul\":265:268   */\n      dup3\n        /* \"#utility.yul\":261:275   */\n      add\n        /* \"#utility.yul\":246:275   */\n      swap1\n      pop\n        /* \"#utility.yul\":112:281   */\n      swap3\n      swap2\n      pop\n      pop\n      jump\t// out\n        /* \"#utility.yul\":287:594   */\n    tag_65:\n        /* \"#utility.yul\":355:356   */\n      0x00\n        /* \"#utility.yul\":365:478   */\n    tag_101:\n        /* \"#utility.yul\":379:385   */\n      dup4\n        /* \"#utility.yul\":376:377   */\n      dup2\n        /* \"#utility.yul\":373:386   */\n      lt\n        /* \"#utility.yul\":365:478   */\n      iszero\n      tag_103\n      jumpi\n        /* \"#utility.yul\":464:465   */\n      dup1\n        /* \"#utility.yul\":459:462   */\n      dup3\n        /* \"#utility.yul\":455:466   */\n      add\n        /* \"#utility.yul\":449:467   */\n      mload\n        /* \"#utility.yul\":445:446   */\n      dup2\n        /* \"#utility.yul\":440:443   */\n      dup5\n        /* \"#utility.yul\":436:447   */\n      add\n        /* \"#utility.yul\":429:468   */\n      mstore\n        /* \"#utility.yul\":401:403   */\n      0x20\n        /* \"#utility.yul\":398:399   */\n      dup2\n        /* \"#utility.yul\":394:404   */\n      add\n        /* \"#utility.yul\":389:404   */\n      swap1\n      pop\n        /* \"#utility.yul\":365:478   */\n      jump(tag_101)\n    tag_103:\n        /* \"#utility.yul\":496:502   */\n      dup4\n        /* \"#utility.yul\":493:494   */\n      dup2\n        /* \"#utility.yul\":490:503   */\n      gt\n        /* \"#utility.yul\":487:588   */\n      iszero\n      tag_104\n      jumpi\n        /* \"#utility.yul\":576:577   */\n      0x00\n        /* \"#utility.yul\":567:573   */\n      dup5\n        /* \"#utility.yul\":562:565   */\n      dup5\n        /* \"#utility.yul\":558:574   */\n      add\n        /* \"#utility.yul\":551:578   */\n      mstore\n        /* \"#utility.yul\":487:588   */\n    tag_104:\n        /* \"#utility.yul\":336:594   */\n      pop\n        /* \"#utility.yul\":287:594   */\n      pop\n      pop\n      pop\n      jump\t// out\n        /* \"#utility.yul\":600:702   */\n    tag_66:\n        /* \"#utility.yul\":641:647   */\n      0x00\n        /* \"#utility.yul\":692:694   */\n      0x1f\n        /* \"#utility.yul\":688:695   */\n      not\n        /* \"#utility.yul\":683:685   */\n      0x1f\n        /* \"#utility.yul\":676:681   */\n      dup4\n        /* \"#utility.yul\":672:686   */\n      add\n        /* \"#utility.yul\":668:696   */\n      and\n        /* \"#utility.yul\":658:696   */\n      swap1\n      pop\n        /* \"#utility.yul\":600:702   */\n      swap2\n      swap1\n      pop\n      jump\t// out\n        /* \"#utility.yul\":708:1072   */\n    tag_67:\n        /* \"#utility.yul\":796:799   */\n      0x00\n        /* \"#utility.yul\":824:863   */\n      tag_107\n        /* \"#utility.yul\":857:862   */\n      dup3\n        /* \"#utility.yul\":824:863   */\n      tag_63\n      jump\t// in\n    tag_107:\n        /* \"#utility.yul\":879:950   */\n      tag_108\n        /* \"#utility.yul\":943:949   */\n      dup2\n        /* \"#utility.yul\":938:941   */\n      dup6\n        /* \"#utility.yul\":879:950   */\n      tag_64\n      jump\t// in\n    tag_108:\n        /* \"#utility.yul\":872:950   */\n      swap4\n      pop\n        /* \"#utility.yul\":959:1011   */\n      tag_109\n        /* \"#utility.yul\":1004:1010   */\n      dup2\n        /* \"#utility.yul\":999:1002   */\n      dup6\n        /* \"#utility.yul\":992:996   */\n      0x20\n        /* \"#utility.yul\":985:990   */\n      dup7\n        /* \"#utility.yul\":981:997   */\n      add\n        /* \"#utility.yul\":959:1011   */\n      tag_65\n      jump\t// in\n    tag_109:\n        /* \"#utility.yul\":1036:1065   */\n      tag_110\n        /* \"#utility.yul\":1058:1064   */\n      dup2\n        /* \"#utility.yul\":1036:1065   */\n      tag_66\n      jump\t// in\n    tag_110:\n        /* \"#utility.yul\":1031:1034   */\n      dup5\n        /* \"#utility.yul\":1027:1066   */\n      add\n        /* \"#utility.yul\":1020:1066   */\n      swap2\n      pop\n        /* \"#utility.yul\":800:1072   */\n      pop\n        /* \"#utility.yul\":708:1072   */\n      swap3\n      swap2\n      pop\n      pop\n      jump\t// out\n        /* \"#utility.yul\":1078:1391   */\n    tag_11:\n        /* \"#utility.yul\":1191:1195   */\n      0x00\n        /* \"#utility.yul\":1229:1231   */\n      0x20\n        /* \"#utility.yul\":1218:1227   */\n      dup3\n        /* \"#utility.yul\":1214:1232   */\n      add\n        /* \"#utility.yul\":1206:1232   */\n      swap1\n      pop\n        /* \"#utility.yul\":1278:1287   */\n      dup2\n        /* \"#utility.yul\":1272:1276   */\n      dup2\n        /* \"#utility.yul\":1268:1288   */\n      sub\n        /* \"#utility.yul\":1264:1265   */\n      0x00\n        /* \"#utility.yul\":1253:1262   */\n      dup4\n        /* \"#utility.yul\":1249:1266   */\n      add\n        /* \"#utility.yul\":1242:1289   */\n      mstore\n        /* \"#utility.yul\":1306:1384   */\n      tag_112\n        /* \"#utility.yul\":1379:1383   */\n      dup2\n        /* \"#utility.yul\":1370:1376   */\n      dup5\n        /* \"#utility.yul\":1306:1384   */\n      tag_67\n      jump\t// in\n    tag_112:\n        /* \"#utility.yul\":1298:1384   */\n      swap1\n      pop\n        /* \"#utility.yul\":1078:1391   */\n      swap3\n      swap2\n      pop\n      pop\n      jump\t// out\n        /* \"#utility.yul\":1397:1472   */\n    tag_68:\n        /* \"#utility.yul\":1430:1436   */\n      0x00\n        /* \"#utility.yul\":1463:1465   */\n      0x40\n        /* \"#utility.yul\":1457:1466   */\n      mload\n        /* \"#utility.yul\":1447:1466   */\n      swap1\n      pop\n        /* \"#utility.yul\":1397:1472   */\n      swap1\n      jump\t// out\n        /* \"#utility.yul\":1478:1595   */\n    tag_69:\n        /* \"#utility.yul\":1587:1588   */\n      0x00\n        /* \"#utility.yul\":1584:1585   */\n      dup1\n        /* \"#utility.yul\":1577:1589   */\n      revert\n        /* \"#utility.yul\":1601:1718   */\n    tag_70:\n        /* \"#utility.yul\":1710:1711   */\n      0x00\n        /* \"#utility.yul\":1707:1708   */\n      dup1\n        /* \"#utility.yul\":1700:1712   */\n      revert\n        /* \"#utility.yul\":1724:1841   */\n    tag_71:\n        /* \"#utility.yul\":1833:1834   */\n      0x00\n        /* \"#utility.yul\":1830:1831   */\n      dup1\n        /* \"#utility.yul\":1823:1835   */\n      revert\n        /* \"#utility.yul\":1847:1964   */\n    tag_72:\n        /* \"#utility.yul\":1956:1957   */\n      0x00\n        /* \"#utility.yul\":1953:1954   */\n      dup1\n        /* \"#utility.yul\":1946:1958   */\n      revert\n        /* \"#utility.yul\":1970:2150   */\n    tag_73:\n        /* \"#utility.yul\":2018:2095   */\n      0x4e487b7100000000000000000000000000000000000000000000000000000000\n        /* \"#utility.yul\":2015:2016   */\n      0x00\n        /* \"#utility.yul\":2008:2096   */\n      mstore\n        /* \"#utility.yul\":2115:2119   */\n      0x41\n        /* \"#utility.yul\":2112:2113   */\n      0x04\n        /* \"#utility.yul\":2105:2120   */\n      mstore\n        /* \"#utility.yul\":2139:2143   */\n      0x24\n        /* \"#utility.yul\":2136:2137   */\n      0x00\n        /* \"#utility.yul\":2129:2144   */\n      revert\n        /* \"#utility.yul\":2156:2437   */\n    tag_74:\n        /* \"#utility.yul\":2239:2266   */\n      tag_120\n        /* \"#utility.yul\":2261:2265   */\n      dup3\n        /* \"#utility.yul\":2239:2266   */\n      tag_66\n      jump\t// in\n    tag_120:\n        /* \"#utility.yul\":2231:2237   */\n      dup2\n        /* \"#utility.yul\":2227:2267   */\n      add\n        /* \"#utility.yul\":2369:2375   */\n      dup2\n        /* \"#utility.yul\":2357:2367   */\n      dup2\n        /* \"#utility.yul\":2354:2376   */\n      lt\n        /* \"#utility.yul\":2333:2351   */\n      0xffffffffffffffff\n        /* \"#utility.yul\":2321:2331   */\n      dup3\n        /* \"#utility.yul\":2318:2352   */\n      gt\n        /* \"#utility.yul\":2315:2377   */\n      or\n        /* \"#utility.yul\":2312:2400   */\n      iszero\n      tag_121\n      jumpi\n        /* \"#utility.yul\":2380:2398   */\n      tag_122\n      tag_73\n      jump\t// in\n    tag_122:\n        /* \"#utility.yul\":2312:2400   */\n    tag_121:\n        /* \"#utility.yul\":2420:2430   */\n      dup1\n        /* \"#utility.yul\":2416:2418   */\n      0x40\n        /* \"#utility.yul\":2409:2431   */\n      mstore\n        /* \"#utility.yul\":2199:2437   */\n      pop\n        /* \"#utility.yul\":2156:2437   */\n      pop\n      pop\n      jump\t// out\n        /* \"#utility.yul\":2443:2572   */\n    tag_75:\n        /* \"#utility.yul\":2477:2483   */\n      0x00\n        /* \"#utility.yul\":2504:2524   */\n      tag_124\n      tag_68\n      jump\t// in\n    tag_124:\n        /* \"#utility.yul\":2494:2524   */\n      swap1\n      pop\n        /* \"#utility.yul\":2533:2566   */\n      tag_125\n        /* \"#utility.yul\":2561:2565   */\n      dup3\n        /* \"#utility.yul\":2553:2559   */\n      dup3\n        /* \"#utility.yul\":2533:2566   */\n      tag_74\n      jump\t// in\n    tag_125:\n        /* \"#utility.yul\":2443:2572   */\n      swap2\n      swap1\n      pop\n      jump\t// out\n        /* \"#utility.yul\":2578:2886   */\n    tag_76:\n        /* \"#utility.yul\":2640:2644   */\n      0x00\n        /* \"#utility.yul\":2730:2748   */\n      0xffffffffffffffff\n        /* \"#utility.yul\":2722:2728   */\n      dup3\n        /* \"#utility.yul\":2719:2749   */\n      gt\n        /* \"#utility.yul\":2716:2772   */\n      iszero\n      tag_127\n      jumpi\n        /* \"#utility.yul\":2752:2770   */\n      tag_128\n      tag_73\n      jump\t// in\n    tag_128:\n        /* \"#utility.yul\":2716:2772   */\n    tag_127:\n        /* \"#utility.yul\":2790:2819   */\n      tag_129\n        /* \"#utility.yul\":2812:2818   */\n      dup3\n        /* \"#utility.yul\":2790:2819   */\n      tag_66\n      jump\t// in\n    tag_129:\n        /* \"#utility.yul\":2782:2819   */\n      swap1\n      pop\n        /* \"#utility.yul\":2874:2878   */\n      0x20\n        /* \"#utility.yul\":2868:2872   */\n      dup2\n        /* \"#utility.yul\":2864:2879   */\n      add\n        /* \"#utility.yul\":2856:2879   */\n      swap1\n      pop\n        /* \"#utility.yul\":2578:2886   */\n      swap2\n      swap1\n      pop\n      jump\t// out\n        /* \"#utility.yul\":2892:3046   */\n    tag_77:\n        /* \"#utility.yul\":2976:2982   */\n      dup3\n        /* \"#utility.yul\":2971:2974   */\n      dup2\n        /* \"#utility.yul\":2966:2969   */\n      dup4\n        /* \"#utility.yul\":2953:2983   */\n      calldatacopy\n        /* \"#utility.yul\":3038:3039   */\n      0x00\n        /* \"#utility.yul\":3029:3035   */\n      dup4\n        /* \"#utility.yul\":3024:3027   */\n      dup4\n        /* \"#utility.yul\":3020:3036   */\n      add\n        /* \"#utility.yul\":3013:3040   */\n      mstore\n        /* \"#utility.yul\":2892:3046   */\n      pop\n      pop\n      pop\n      jump\t// out\n        /* \"#utility.yul\":3052:3464   */\n    tag_78:\n        /* \"#utility.yul\":3130:3135   */\n      0x00\n        /* \"#utility.yul\":3155:3221   */\n      tag_132\n        /* \"#utility.yul\":3171:3220   */\n      tag_133\n        /* \"#utility.yul\":3213:3219   */\n      dup5\n        /* \"#utility.yul\":3171:3220   */\n      tag_76\n      jump\t// in\n    tag_133:\n        /* \"#utility.yul\":3155:3221   */\n      tag_75\n      jump\t// in\n    tag_132:\n        /* \"#utility.yul\":3146:3221   */\n      swap1\n      pop\n        /* \"#utility.yul\":3244:3250   */\n      dup3\n        /* \"#utility.yul\":3237:3242   */\n      dup2\n        /* \"#utility.yul\":3230:3251   */\n      mstore\n        /* \"#utility.yul\":3282:3286   */\n      0x20\n        /* \"#utility.yul\":3275:3280   */\n      dup2\n        /* \"#utility.yul\":3271:3287   */\n      add\n        /* \"#utility.yul\":3320:3323   */\n      dup5\n        /* \"#utility.yul\":3311:3317   */\n      dup5\n        /* \"#utility.yul\":3306:3309   */\n      dup5\n        /* \"#utility.yul\":3302:3318   */\n      add\n        /* \"#utility.yul\":3299:3324   */\n      gt\n        /* \"#utility.yul\":3296:3408   */\n      iszero\n      tag_134\n      jumpi\n        /* \"#utility.yul\":3327:3406   */\n      tag_135\n      tag_72\n      jump\t// in\n    tag_135:\n        /* \"#utility.yul\":3296:3408   */\n    tag_134:\n        /* \"#utility.yul\":3417:3458   */\n      tag_136\n        /* \"#utility.yul\":3451:3457   */\n      dup5\n        /* \"#utility.yul\":3446:3449   */\n      dup3\n        /* \"#utility.yul\":3441:3444   */\n      dup6\n        /* \"#utility.yul\":3417:3458   */\n      tag_77\n      jump\t// in\n    tag_136:\n        /* \"#utility.yul\":3136:3464   */\n      pop\n        /* \"#utility.yul\":3052:3464   */\n      swap4\n      swap3\n      pop\n      pop\n      pop\n      jump\t// out\n        /* \"#utility.yul\":3484:3824   */\n    tag_79:\n        /* \"#utility.yul\":3540:3545   */\n      0x00\n        /* \"#utility.yul\":3589:3592   */\n      dup3\n        /* \"#utility.yul\":3582:3586   */\n      0x1f\n        /* \"#utility.yul\":3574:3580   */\n      dup4\n        /* \"#utility.yul\":3570:3587   */\n      add\n        /* \"#utility.yul\":3566:3593   */\n      slt\n        /* \"#utility.yul\":3556:3678   */\n      tag_138\n      jumpi\n        /* \"#utility.yul\":3597:3676   */\n      tag_139\n      tag_71\n      jump\t// in\n    tag_139:\n        /* \"#utility.yul\":3556:3678   */\n    tag_138:\n        /* \"#utility.yul\":3714:3720   */\n      dup2\n        /* \"#utility.yul\":3701:3721   */\n      calldataload\n        /* \"#utility.yul\":3739:3818   */\n      tag_140\n        /* \"#utility.yul\":3814:3817   */\n      dup5\n        /* \"#utility.yul\":3806:3812   */\n      dup3\n        /* \"#utility.yul\":3799:3803   */\n      0x20\n        /* \"#utility.yul\":3791:3797   */\n      dup7\n        /* \"#utility.yul\":3787:3804   */\n      add\n        /* \"#utility.yul\":3739:3818   */\n      tag_78\n      jump\t// in\n    tag_140:\n        /* \"#utility.yul\":3730:3818   */\n      swap2\n      pop\n        /* \"#utility.yul\":3546:3824   */\n      pop\n        /* \"#utility.yul\":3484:3824   */\n      swap3\n      swap2\n      pop\n      pop\n      jump\t// out\n        /* \"#utility.yul\":3830:4989   */\n    tag_17:\n        /* \"#utility.yul\":3937:3943   */\n      0x00\n        /* \"#utility.yul\":3945:3951   */\n      dup1\n        /* \"#utility.yul\":3953:3959   */\n      0x00\n        /* \"#utility.yul\":4002:4004   */\n      0x60\n        /* \"#utility.yul\":3990:3999   */\n      dup5\n        /* \"#utility.yul\":3981:3988   */\n      dup7\n        /* \"#utility.yul\":3977:4000   */\n      sub\n        /* \"#utility.yul\":3973:4005   */\n      slt\n        /* \"#utility.yul\":3970:4089   */\n      iszero\n      tag_142\n      jumpi\n        /* \"#utility.yul\":4008:4087   */\n      tag_143\n      tag_69\n      jump\t// in\n    tag_143:\n        /* \"#utility.yul\":3970:4089   */\n    tag_142:\n        /* \"#utility.yul\":4156:4157   */\n      0x00\n        /* \"#utility.yul\":4145:4154   */\n      dup5\n        /* \"#utility.yul\":4141:4158   */\n      add\n        /* \"#utility.yul\":4128:4159   */\n      calldataload\n        /* \"#utility.yul\":4186:4204   */\n      0xffffffffffffffff\n        /* \"#utility.yul\":4178:4184   */\n      dup2\n        /* \"#utility.yul\":4175:4205   */\n      gt\n        /* \"#utility.yul\":4172:4289   */\n      iszero\n      tag_144\n      jumpi\n        /* \"#utility.yul\":4208:4287   */\n      tag_145\n      tag_70\n      jump\t// in\n    tag_145:\n        /* \"#utility.yul\":4172:4289   */\n    tag_144:\n        /* \"#utility.yul\":4313:4376   */\n      tag_146\n        /* \"#utility.yul\":4368:4375   */\n      dup7\n        /* \"#utility.yul\":4359:4365   */\n      dup3\n        /* \"#utility.yul\":4348:4357   */\n      dup8\n        /* \"#utility.yul\":4344:4366   */\n      add\n        /* \"#utility.yul\":4313:4376   */\n      tag_79\n      jump\t// in\n    tag_146:\n        /* \"#utility.yul\":4303:4376   */\n      swap4\n      pop\n        /* \"#utility.yul\":4099:4386   */\n      pop\n        /* \"#utility.yul\":4453:4455   */\n      0x20\n        /* \"#utility.yul\":4442:4451   */\n      dup5\n        /* \"#utility.yul\":4438:4456   */\n      add\n        /* \"#utility.yul\":4425:4457   */\n      calldataload\n        /* \"#utility.yul\":4484:4502   */\n      0xffffffffffffffff\n        /* \"#utility.yul\":4476:4482   */\n      dup2\n        /* \"#utility.yul\":4473:4503   */\n      gt\n        /* \"#utility.yul\":4470:4587   */\n      iszero\n      tag_147\n      jumpi\n        /* \"#utility.yul\":4506:4585   */\n      tag_148\n      tag_70\n      jump\t// in\n    tag_148:\n        /* \"#utility.yul\":4470:4587   */\n    tag_147:\n        /* \"#utility.yul\":4611:4674   */\n      tag_149\n        /* \"#utility.yul\":4666:4673   */\n      dup7\n        /* \"#utility.yul\":4657:4663   */\n      dup3\n        /* \"#utility.yul\":4646:4655   */\n      dup8\n        /* \"#utility.yul\":4642:4664   */\n      add\n        /* \"#utility.yul\":4611:4674   */\n      tag_79\n      jump\t// in\n    tag_149:\n        /* \"#utility.yul\":4601:4674   */\n      swap3\n      pop\n        /* \"#utility.yul\":4396:4684   */\n      pop\n        /* \"#utility.yul\":4751:4753   */\n      0x40\n        /* \"#utility.yul\":4740:4749   */\n      dup5\n        /* \"#utility.yul\":4736:4754   */\n      add\n        /* \"#utility.yul\":4723:4755   */\n      calldataload\n        /* \"#utility.yul\":4782:4800   */\n      0xffffffffffffffff\n        /* \"#utility.yul\":4774:4780   */\n      dup2\n        /* \"#utility.yul\":4771:4801   */\n      gt\n        /* \"#utility.yul\":4768:4885   */\n      iszero\n      tag_150\n      jumpi\n        /* \"#utility.yul\":4804:4883   */\n      tag_151\n      tag_70\n      jump\t// in\n    tag_151:\n        /* \"#utility.yul\":4768:4885   */\n    tag_150:\n        /* \"#utility.yul\":4909:4972   */\n      tag_152\n        /* \"#utility.yul\":4964:4971   */\n      dup7\n        /* \"#utility.yul\":4955:4961   */\n      dup3\n        /* \"#utility.yul\":4944:4953   */\n      dup8\n        /* \"#utility.yul\":4940:4962   */\n      add\n        /* \"#utility.yul\":4909:4972   */\n      tag_79\n      jump\t// in\n    tag_152:\n        /* \"#utility.yul\":4899:4972   */\n      swap2\n      pop\n        /* \"#utility.yul\":4694:4982   */\n      pop\n        /* \"#utility.yul\":3830:4989   */\n      swap3\n      pop\n      swap3\n      pop\n      swap3\n      jump\t// out\n        /* \"#utility.yul\":4995:5710   */\n    tag_25:\n        /* \"#utility.yul\":5204:5208   */\n      0x00\n        /* \"#utility.yul\":5242:5244   */\n      0x60\n        /* \"#utility.yul\":5231:5240   */\n      dup3\n        /* \"#utility.yul\":5227:5245   */\n      add\n        /* \"#utility.yul\":5219:5245   */\n      swap1\n      pop\n        /* \"#utility.yul\":5291:5300   */\n      dup2\n        /* \"#utility.yul\":5285:5289   */\n      dup2\n        /* \"#utility.yul\":5281:5301   */\n      sub\n        /* \"#utility.yul\":5277:5278   */\n      0x00\n        /* \"#utility.yul\":5266:5275   */\n      dup4\n        /* \"#utility.yul\":5262:5279   */\n      add\n        /* \"#utility.yul\":5255:5302   */\n      mstore\n        /* \"#utility.yul\":5319:5397   */\n      tag_154\n        /* \"#utility.yul\":5392:5396   */\n      dup2\n        /* \"#utility.yul\":5383:5389   */\n      dup7\n        /* \"#utility.yul\":5319:5397   */\n      tag_67\n      jump\t// in\n    tag_154:\n        /* \"#utility.yul\":5311:5397   */\n      swap1\n      pop\n        /* \"#utility.yul\":5444:5453   */\n      dup2\n        /* \"#utility.yul\":5438:5442   */\n      dup2\n        /* \"#utility.yul\":5434:5454   */\n      sub\n        /* \"#utility.yul\":5429:5431   */\n      0x20\n        /* \"#utility.yul\":5418:5427   */\n      dup4\n        /* \"#utility.yul\":5414:5432   */\n      add\n        /* \"#utility.yul\":5407:5455   */\n      mstore\n        /* \"#utility.yul\":5472:5550   */\n      tag_155\n        /* \"#utility.yul\":5545:5549   */\n      dup2\n        /* \"#utility.yul\":5536:5542   */\n      dup6\n        /* \"#utility.yul\":5472:5550   */\n      tag_67\n      jump\t// in\n    tag_155:\n        /* \"#utility.yul\":5464:5550   */\n      swap1\n      pop\n        /* \"#utility.yul\":5597:5606   */\n      dup2\n        /* \"#utility.yul\":5591:5595   */\n      dup2\n        /* \"#utility.yul\":5587:5607   */\n      sub\n        /* \"#utility.yul\":5582:5584   */\n      0x40\n        /* \"#utility.yul\":5571:5580   */\n      dup4\n        /* \"#utility.yul\":5567:5585   */\n      add\n        /* \"#utility.yul\":5560:5608   */\n      mstore\n        /* \"#utility.yul\":5625:5703   */\n      tag_156\n        /* \"#utility.yul\":5698:5702   */\n      dup2\n        /* \"#utility.yul\":5689:5695   */\n      dup5\n        /* \"#utility.yul\":5625:5703   */\n      tag_67\n      jump\t// in\n    tag_156:\n        /* \"#utility.yul\":5617:5703   */\n      swap1\n      pop\n        /* \"#utility.yul\":4995:5710   */\n      swap5\n      swap4\n      pop\n      pop\n      pop\n      pop\n      jump\t// out\n        /* \"#utility.yul\":5716:5896   */\n    tag_80:\n        /* \"#utility.yul\":5764:5841   */\n      0x4e487b7100000000000000000000000000000000000000000000000000000000\n        /* \"#utility.yul\":5761:5762   */\n      0x00\n        /* \"#utility.yul\":5754:5842   */\n      mstore\n        /* \"#utility.yul\":5861:5865   */\n      0x22\n        /* \"#utility.yul\":5858:5859   */\n      0x04\n        /* \"#utility.yul\":5851:5866   */\n      mstore\n        /* \"#utility.yul\":5885:5889   */\n      0x24\n        /* \"#utility.yul\":5882:5883   */\n      0x00\n        /* \"#utility.yul\":5875:5890   */\n      revert\n        /* \"#utility.yul\":5902:6222   */\n    tag_27:\n        /* \"#utility.yul\":5946:5952   */\n      0x00\n        /* \"#utility.yul\":5983:5984   */\n      0x02\n        /* \"#utility.yul\":5977:5981   */\n      dup3\n        /* \"#utility.yul\":5973:5985   */\n      div\n        /* \"#utility.yul\":5963:5985   */\n      swap1\n      pop\n        /* \"#utility.yul\":6030:6031   */\n      0x01\n        /* \"#utility.yul\":6024:6028   */\n      dup3\n        /* \"#utility.yul\":6020:6032   */\n      and\n        /* \"#utility.yul\":6051:6069   */\n      dup1\n        /* \"#utility.yul\":6041:6122   */\n      tag_159\n      jumpi\n        /* \"#utility.yul\":6107:6111   */\n      0x7f\n        /* \"#utility.yul\":6099:6105   */\n      dup3\n        /* \"#utility.yul\":6095:6112   */\n      and\n        /* \"#utility.yul\":6085:6112   */\n      swap2\n      pop\n        /* \"#utility.yul\":6041:6122   */\n    tag_159:\n        /* \"#utility.yul\":6169:6171   */\n      0x20\n        /* \"#utility.yul\":6161:6167   */\n      dup3\n        /* \"#utility.yul\":6158:6172   */\n      lt\n        /* \"#utility.yul\":6138:6156   */\n      dup2\n        /* \"#utility.yul\":6135:6173   */\n      sub\n        /* \"#utility.yul\":6132:6216   */\n      tag_160\n      jumpi\n        /* \"#utility.yul\":6188:6206   */\n      tag_161\n      tag_80\n      jump\t// in\n    tag_161:\n        /* \"#utility.yul\":6132:6216   */\n    tag_160:\n        /* \"#utility.yul\":5953:6222   */\n      pop\n        /* \"#utility.yul\":5902:6222   */\n      swap2\n      swap1\n      pop\n      jump\t// out\n        /* \"#utility.yul\":6228:6369   */\n    tag_81:\n        /* \"#utility.yul\":6277:6281   */\n      0x00\n        /* \"#utility.yul\":6300:6303   */\n      dup2\n        /* \"#utility.yul\":6292:6303   */\n      swap1\n      pop\n        /* \"#utility.yul\":6323:6326   */\n      dup2\n        /* \"#utility.yul\":6320:6321   */\n      0x00\n        /* \"#utility.yul\":6313:6327   */\n      mstore\n        /* \"#utility.yul\":6357:6361   */\n      0x20\n        /* \"#utility.yul\":6354:6355   */\n      0x00\n        /* \"#utility.yul\":6344:6362   */\n      keccak256\n        /* \"#utility.yul\":6336:6362   */\n      swap1\n      pop\n        /* \"#utility.yul\":6228:6369   */\n      swap2\n      swap1\n      pop\n      jump\t// out\n        /* \"#utility.yul\":6375:6468   */\n    tag_82:\n        /* \"#utility.yul\":6412:6418   */\n      0x00\n        /* \"#utility.yul\":6459:6461   */\n      0x20\n        /* \"#utility.yul\":6454:6456   */\n      0x1f\n        /* \"#utility.yul\":6447:6452   */\n      dup4\n        /* \"#utility.yul\":6443:6457   */\n      add\n        /* \"#utility.yul\":6439:6462   */\n      div\n        /* \"#utility.yul\":6429:6462   */\n      swap1\n      pop\n        /* \"#utility.yul\":6375:6468   */\n      swap2\n      swap1\n      pop\n      jump\t// out\n        /* \"#utility.yul\":6474:6581   */\n    tag_83:\n        /* \"#utility.yul\":6518:6526   */\n      0x00\n        /* \"#utility.yul\":6568:6573   */\n      dup3\n        /* \"#utility.yul\":6562:6566   */\n      dup3\n        /* \"#utility.yul\":6558:6574   */\n      shl\n        /* \"#utility.yul\":6537:6574   */\n      swap1\n      pop\n        /* \"#utility.yul\":6474:6581   */\n      swap3\n      swap2\n      pop\n      pop\n      jump\t// out\n        /* \"#utility.yul\":6587:6980   */\n    tag_84:\n        /* \"#utility.yul\":6656:6662   */\n      0x00\n        /* \"#utility.yul\":6706:6707   */\n      0x08\n        /* \"#utility.yul\":6694:6704   */\n      dup4\n        /* \"#utility.yul\":6690:6708   */\n      mul\n        /* \"#utility.yul\":6729:6826   */\n      tag_166\n        /* \"#utility.yul\":6759:6825   */\n      0xffffffffffffffffffffffffffffffffffffffffffffffffffffffffffffffff\n        /* \"#utility.yul\":6748:6757   */\n      dup3\n        /* \"#utility.yul\":6729:6826   */\n      tag_83\n      jump\t// in\n    tag_166:\n        /* \"#utility.yul\":6847:6886   */\n      tag_167\n        /* \"#utility.yul\":6877:6885   */\n      dup7\n        /* \"#utility.yul\":6866:6875   */\n      dup4\n        /* \"#utility.yul\":6847:6886   */\n      tag_83\n      jump\t// in\n    tag_167:\n        /* \"#utility.yul\":6835:6886   */\n      swap6\n      pop\n        /* \"#utility.yul\":6919:6923   */\n      dup1\n        /* \"#utility.yul\":6915:6924   */\n      not\n        /* \"#utility.yul\":6908:6913   */\n      dup5\n        /* \"#utility.yul\":6904:6925   */\n      and\n        /* \"#utility.yul\":6895:6925   */\n      swap4\n      pop\n        /* \"#utility.yul\":6968:6972   */\n      dup1\n        /* \"#utility.yul\":6958:6966   */\n      dup7\n        /* \"#utility.yul\":6954:6973   */\n      and\n        /* \"#utility.yul\":6947:6952   */\n      dup5\n        /* \"#utility.yul\":6944:6974   */\n      or\n        /* \"#utility.yul\":6934:6974   */\n      swap3\n      pop\n        /* \"#utility.yul\":6663:6980   */\n      pop\n      pop\n        /* \"#utility.yul\":6587:6980   */\n      swap4\n      swap3\n      pop\n      pop\n      pop\n      jump\t// out\n        /* \"#utility.yul\":6986:7063   */\n    tag_85:\n        /* \"#utility.yul\":7023:7030   */\n      0x00\n        /* \"#utility.yul\":7052:7057   */\n      dup2\n        /* \"#utility.yul\":7041:7057   */\n      swap1\n      pop\n        /* \"#utility.yul\":6986:7063   */\n      swap2\n      swap1\n      pop\n      jump\t// out\n        /* \"#utility.yul\":7069:7129   */\n    tag_86:\n        /* \"#utility.yul\":7097:7100   */\n      0x00\n        /* \"#utility.yul\":7118:7123   */\n      dup2\n        /* \"#utility.yul\":7111:7123   */\n      swap1\n      pop\n        /* \"#utility.yul\":7069:7129   */\n      swap2\n      swap1\n      pop\n      jump\t// out\n        /* \"#utility.yul\":7135:7277   */\n    tag_87:\n        /* \"#utility.yul\":7185:7194   */\n      0x00\n        /* \"#utility.yul\":7218:7271   */\n      tag_171\n        /* \"#utility.yul\":7236:7270   */\n      tag_172\n        /* \"#utility.yul\":7245:7269   */\n      tag_173\n        /* \"#utility.yul\":7263:7268   */\n      dup5\n        /* \"#utility.yul\":7245:7269   */\n      tag_85\n      jump\t// in\n    tag_173:\n        /* \"#utility.yul\":7236:7270   */\n      tag_86\n      jump\t// in\n    tag_172:\n        /* \"#utility.yul\":7218:7271   */\n      tag_85\n      jump\t// in\n    tag_171:\n        /* \"#utility.yul\":7205:7271   */\n      swap1\n      pop\n        /* \"#utility.yul\":7135:7277   */\n      swap2\n      swap1\n      pop\n      jump\t// out\n        /* \"#utility.yul\":7283:7358   */\n    tag_88:\n        /* \"#utility.yul\":7326:7329   */\n      0x00\n        /* \"#utility.yul\":7347:7352   */\n      dup2\n        /* \"#utility.yul\":7340:7352   */\n      swap1\n      pop\n        /* \"#utility.yul\":7283:7358   */\n      swap2\n      swap1\n      pop\n      jump\t// out\n        /* \"#utility.yul\":7364:7633   */\n    tag_89:\n        /* \"#utility.yul\":7474:7513   */\n      tag_176\n        /* \"#utility.yul\":7505:7512   */\n      dup4\n        /* \"#utility.yul\":7474:7513   */\n      tag_87\n      jump\t// in\n    tag_176:\n        /* \"#utility.yul\":7535:7626   */\n      tag_177\n        /* \"#utility.yul\":7584:7625   */\n      tag_178\n        /* \"#utility.yul\":7608:7624   */\n      dup3\n        /* \"#utility.yul\":7584:7625   */\n      tag_88\n      jump\t// in\n    tag_178:\n        /* \"#utility.yul\":7576:7582   */\n      dup5\n        /* \"#utility.yul\":7569:7573   */\n      dup5\n        /* \"#utility.yul\":7563:7574   */\n      sload\n        /* \"#utility.yul\":7535:7626   */\n      tag_84\n      jump\t// in\n    tag_177:\n        /* \"#utility.yul\":7529:7533   */\n      dup3\n        /* \"#utility.yul\":7522:7627   */\n      sstore\n        /* \"#utility.yul\":7440:7633   */\n      pop\n        /* \"#utility.yul\":7364:7633   */\n      pop\n      pop\n      pop\n      jump\t// out\n        /* \"#utility.yul\":7639:7712   */\n    tag_90:\n        /* \"#utility.yul\":7684:7687   */\n      0x00\n        /* \"#utility.yul\":7639:7712   */\n      swap1\n      jump\t// out\n        /* \"#utility.yul\":7718:7907   */\n    tag_91:\n        /* \"#utility.yul\":7795:7827   */\n      tag_181\n      tag_90\n      jump\t// in\n    tag_181:\n        /* \"#utility.yul\":7836:7901   */\n      tag_182\n        /* \"#utility.yul\":7894:7900   */\n      dup2\n        /* \"#utility.yul\":7886:7892   */\n      dup5\n        /* \"#utility.yul\":7880:7884   */\n      dup5\n        /* \"#utility.yul\":7836:7901   */\n      tag_89\n      jump\t// in\n    tag_182:\n        /* \"#utility.yul\":7771:7907   */\n      pop\n        /* \"#utility.yul\":7718:7907   */\n      pop\n      pop\n      jump\t// out\n        /* \"#utility.yul\":7913:8099   */\n    tag_92:\n        /* \"#utility.yul\":7973:8093   */\n    tag_184:\n        /* \"#utility.yul\":7990:7993   */\n      dup2\n        /* \"#utility.yul\":7983:7988   */\n      dup2\n        /* \"#utility.yul\":7980:7994   */\n      lt\n        /* \"#utility.yul\":7973:8093   */\n      iszero\n      tag_186\n      jumpi\n        /* \"#utility.yul\":8044:8083   */\n      tag_187\n        /* \"#utility.yul\":8081:8082   */\n      0x00\n        /* \"#utility.yul\":8074:8079   */\n      dup3\n        /* \"#utility.yul\":8044:8083   */\n      tag_91\n      jump\t// in\n    tag_187:\n        /* \"#utility.yul\":8017:8018   */\n      0x01\n        /* \"#utility.yul\":8010:8015   */\n      dup2\n        /* \"#utility.yul\":8006:8019   */\n      add\n        /* \"#utility.yul\":7997:8019   */\n      swap1\n      pop\n        /* \"#utility.yul\":7973:8093   */\n      jump(tag_184)\n    tag_186:\n        /* \"#utility.yul\":7913:8099   */\n      pop\n      pop\n      jump\t// out\n        /* \"#utility.yul\":8105:8648   */\n    tag_93:\n        /* \"#utility.yul\":8206:8208   */\n      0x1f\n        /* \"#utility.yul\":8201:8204   */\n      dup3\n        /* \"#utility.yul\":8198:8209   */\n      gt\n        /* \"#utility.yul\":8195:8641   */\n      iszero\n      tag_189\n      jumpi\n        /* \"#utility.yul\":8240:8278   */\n      tag_190\n        /* \"#utility.yul\":8272:8277   */\n      dup2\n        /* \"#utility.yul\":8240:8278   */\n      tag_81\n      jump\t// in\n    tag_190:\n        /* \"#utility.yul\":8324:8353   */\n      tag_191\n        /* \"#utility.yul\":8342:8352   */\n      dup5\n        /* \"#utility.yul\":8324:8353   */\n      tag_82\n      jump\t// in\n    tag_191:\n        /* \"#utility.yul\":8314:8322   */\n      dup2\n        /* \"#utility.yul\":8310:8354   */\n      add\n        /* \"#utility.yul\":8507:8509   */\n      0x20\n        /* \"#utility.yul\":8495:8505   */\n      dup6\n        /* \"#utility.yul\":8492:8510   */\n      lt\n        /* \"#utility.yul\":8489:8538   */\n      iszero\n      tag_192\n      jumpi\n        /* \"#utility.yul\":8528:8536   */\n      dup2\n        /* \"#utility.yul\":8513:8536   */\n      swap1\n      pop\n        /* \"#utility.yul\":8489:8538   */\n    tag_192:\n        /* \"#utility.yul\":8551:8631   */\n      tag_193\n        /* \"#utility.yul\":8607:8629   */\n      tag_194\n        /* \"#utility.yul\":8625:8628   */\n      dup6\n        /* \"#utility.yul\":8607:8629   */\n      tag_82\n      jump\t// in\n    tag_194:\n        /* \"#utility.yul\":8597:8605   */\n      dup4\n        /* \"#utility.yul\":8593:8630   */\n      add\n        /* \"#utility.yul\":8580:8591   */\n      dup3\n        /* \"#utility.yul\":8551:8631   */\n      tag_92\n      jump\t// in\n    tag_193:\n        /* \"#utility.yul\":8210:8641   */\n      pop\n      pop\n        /* \"#utility.yul\":8195:8641   */\n    tag_189:\n        /* \"#utility.yul\":8105:8648   */\n      pop\n      pop\n      pop\n      jump\t// out\n        /* \"#utility.yul\":8654:8771   */\n    tag_94:\n        /* \"#utility.yul\":8708:8716   */\n      0x00\n        /* \"#utility.yul\":8758:8763   */\n      dup3\n        /* \"#utility.yul\":8752:8756   */\n      dup3\n        /* \"#utility.yul\":8748:8764   */\n      shr\n        /* \"#utility.yul\":8727:8764   */\n      swap1\n      pop\n        /* \"#utility.yul\":8654:8771   */\n      swap3\n      swap2\n      pop\n      pop\n      jump\t// out\n        /* \"#utility.yul\":8777:8946   */\n    tag_95:\n        /* \"#utility.yul\":8821:8827   */\n      0x00\n        /* \"#utility.yul\":8854:8905   */\n      tag_197\n        /* \"#utility.yul\":8902:8903   */\n      0x00\n        /* \"#utility.yul\":8898:8904   */\n      not\n        /* \"#utility.yul\":8890:8895   */\n      dup5\n        /* \"#utility.yul\":8887:8888   */\n      0x08\n        /* \"#utility.yul\":8883:8896   */\n      mul\n        /* \"#utility.yul\":8854:8905   */\n      tag_94\n      jump\t// in\n    tag_197:\n        /* \"#utility.yul\":8850:8906   */\n      not\n        /* \"#utility.yul\":8935:8939   */\n      dup1\n        /* \"#utility.yul\":8929:8933   */\n      dup4\n        /* \"#utility.yul\":8925:8940   */\n      and\n        /* \"#utility.yul\":8915:8940   */\n      swap2\n      pop\n        /* \"#utility.yul\":8828:8946   */\n      pop\n        /* \"#utility.yul\":8777:8946   */\n      swap3\n      swap2\n      pop\n      pop\n      jump\t// out\n        /* \"#utility.yul\":8951:9246   */\n    tag_96:\n        /* \"#utility.yul\":9027:9031   */\n      0x00\n        /* \"#utility.yul\":9173:9202   */\n      tag_199\n        /* \"#utility.yul\":9198:9201   */\n      dup4\n        /* \"#utility.yul\":9192:9196   */\n      dup4\n        /* \"#utility.yul\":9173:9202   */\n      tag_95\n      jump\t// in\n    tag_199:\n        /* \"#utility.yul\":9165:9202   */\n      swap2\n      pop\n        /* \"#utility.yul\":9235:9238   */\n      dup3\n        /* \"#utility.yul\":9232:9233   */\n      0x02\n        /* \"#utility.yul\":9228:9239   */\n      mul\n        /* \"#utility.yul\":9222:9226   */\n      dup3\n        /* \"#utility.yul\":9219:9240   */\n      or\n        /* \"#utility.yul\":9211:9240   */\n      swap1\n      pop\n        /* \"#utility.yul\":8951:9246   */\n      swap3\n      swap2\n      pop\n      pop\n      jump\t// out\n        /* \"#utility.yul\":9251:10646   */\n    tag_39:\n        /* \"#utility.yul\":9368:9405   */\n      tag_201\n        /* \"#utility.yul\":9401:9404   */\n      dup3\n        /* \"#utility.yul\":9368:9405   */\n      tag_63\n      jump\t// in\n    tag_201:\n        /* \"#utility.yul\":9470:9488   */\n      0xffffffffffffffff\n        /* \"#utility.yul\":9462:9468   */\n      dup2\n        /* \"#utility.yul\":9459:9489   */\n      gt\n        /* \"#utility.yul\":9456:9512   */\n      iszero\n      tag_202\n      jumpi\n        /* \"#utility.yul\":9492:9510   */\n      tag_203\n      tag_73\n      jump\t// in\n    tag_203:\n        /* \"#utility.yul\":9456:9512   */\n    tag_202:\n        /* \"#utility.yul\":9536:9574   */\n      tag_204\n        /* \"#utility.yul\":9568:9572   */\n      dup3\n        /* \"#utility.yul\":9562:9573   */\n      sload\n        /* \"#utility.yul\":9536:9574   */\n      tag_27\n      jump\t// in\n    tag_204:\n        /* \"#utility.yul\":9621:9688   */\n      tag_205\n        /* \"#utility.yul\":9681:9687   */\n      dup3\n        /* \"#utility.yul\":9673:9679   */\n      dup3\n        /* \"#utility.yul\":9667:9671   */\n      dup6\n        /* \"#utility.yul\":9621:9688   */\n      tag_93\n      jump\t// in\n    tag_205:\n        /* \"#utility.yul\":9715:9716   */\n      0x00\n        /* \"#utility.yul\":9739:9743   */\n      0x20\n        /* \"#utility.yul\":9726:9743   */\n      swap1\n      pop\n        /* \"#utility.yul\":9771:9773   */\n      0x1f\n        /* \"#utility.yul\":9763:9769   */\n      dup4\n        /* \"#utility.yul\":9760:9774   */\n      gt\n        /* \"#utility.yul\":9788:9789   */\n      0x01\n        /* \"#utility.yul\":9783:10401   */\n      dup2\n      eq\n      tag_207\n      jumpi\n        /* \"#utility.yul\":10445:10446   */\n      0x00\n        /* \"#utility.yul\":10462:10468   */\n      dup5\n        /* \"#utility.yul\":10459:10536   */\n      iszero\n      tag_208\n      jumpi\n        /* \"#utility.yul\":10511:10520   */\n      dup3\n        /* \"#utility.yul\":10506:10509   */\n      dup8\n        /* \"#utility.yul\":10502:10521   */\n      add\n        /* \"#utility.yul\":10496:10522   */\n      mload\n        /* \"#utility.yul\":10487:10522   */\n      swap1\n      pop\n        /* \"#utility.yul\":10459:10536   */\n    tag_208:\n        /* \"#utility.yul\":10562:10629   */\n      tag_209\n        /* \"#utility.yul\":10622:10628   */\n      dup6\n        /* \"#utility.yul\":10615:10620   */\n      dup3\n        /* \"#utility.yul\":10562:10629   */\n      tag_96\n      jump\t// in\n    tag_209:\n        /* \"#utility.yul\":10556:10560   */\n      dup7\n        /* \"#utility.yul\":10549:10630   */\n      sstore\n        /* \"#utility.yul\":10418:10640   */\n      pop\n        /* \"#utility.yul\":9753:10640   */\n      jump(tag_206)\n        /* \"#utility.yul\":9783:10401   */\n    tag_207:\n        /* \"#utility.yul\":9835:9839   */\n      0x1f\n        /* \"#utility.yul\":9831:9840   */\n      not\n        /* \"#utility.yul\":9823:9829   */\n      dup5\n        /* \"#utility.yul\":9819:9841   */\n      and\n        /* \"#utility.yul\":9869:9906   */\n      tag_210\n        /* \"#utility.yul\":9901:9905   */\n      dup7\n        /* \"#utility.yul\":9869:9906   */\n      tag_81\n      jump\t// in\n    tag_210:\n        /* \"#utility.yul\":9928:9929   */\n      0x00\n        /* \"#utility.yul\":9942:10150   */\n    tag_211:\n        /* \"#utility.yul\":9956:9963   */\n      dup3\n        /* \"#utility.yul\":9953:9954   */\n      dup2\n        /* \"#utility.yul\":9950:9964   */\n      lt\n        /* \"#utility.yul\":9942:10150   */\n      iszero\n      tag_213\n      jumpi\n        /* \"#utility.yul\":10035:10044   */\n      dup5\n        /* \"#utility.yul\":10030:10033   */\n      dup10\n        /* \"#utility.yul\":10026:10045   */\n      add\n        /* \"#utility.yul\":10020:10046   */\n      mload\n        /* \"#utility.yul\":10012:10018   */\n      dup3\n        /* \"#utility.yul\":10005:10047   */\n      sstore\n        /* \"#utility.yul\":10086:10087   */\n      0x01\n        /* \"#utility.yul\":10078:10084   */\n      dup3\n        /* \"#utility.yul\":10074:10088   */\n      add\n        /* \"#utility.yul\":10064:10088   */\n      swap2\n      pop\n        /* \"#utility.yul\":10133:10135   */\n      0x20\n        /* \"#utility.yul\":10122:10131   */\n      dup6\n        /* \"#utility.yul\":10118:10136   */\n      add\n        /* \"#utility.yul\":10105:10136   */\n      swap5\n      pop\n        /* \"#utility.yul\":9979:9983   */\n      0x20\n        /* \"#utility.yul\":9976:9977   */\n      dup2\n        /* \"#utility.yul\":9972:9984   */\n      add\n        /* \"#utility.yul\":9967:9984   */\n      swap1\n      pop\n        /* \"#utility.yul\":9942:10150   */\n      jump(tag_211)\n    tag_213:\n        /* \"#utility.yul\":10178:10184   */\n      dup7\n        /* \"#utility.yul\":10169:10176   */\n      dup4\n        /* \"#utility.yul\":10166:10185   */\n      lt\n        /* \"#utility.yul\":10163:10342   */\n      iszero\n      tag_214\n      jumpi\n        /* \"#utility.yul\":10236:10245   */\n      dup5\n        /* \"#utility.yul\":10231:10234   */\n      dup10\n        /* \"#utility.yul\":10227:10246   */\n      add\n        /* \"#utility.yul\":10221:10247   */\n      mload\n        /* \"#utility.yul\":10279:10327   */\n      tag_215\n        /* \"#utility.yul\":10321:10325   */\n      0x1f\n        /* \"#utility.yul\":10313:10319   */\n      dup10\n        /* \"#utility.yul\":10309:10326   */\n      and\n        /* \"#utility.yul\":10298:10307   */\n      dup3\n        /* \"#utility.yul\":10279:10327   */\n      tag_95\n      jump\t// in\n    tag_215:\n        /* \"#utility.yul\":10271:10277   */\n      dup4\n        /* \"#utility.yul\":10264:10328   */\n      sstore\n        /* \"#utility.yul\":10186:10342   */\n      pop\n        /* \"#utility.yul\":10163:10342   */\n    tag_214:\n        /* \"#utility.yul\":10388:10389   */\n      0x01\n        /* \"#utility.yul\":10384:10385   */\n      0x02\n        /* \"#utility.yul\":10376:10382   */\n      dup9\n        /* \"#utility.yul\":10372:10386   */\n      mul\n        /* \"#utility.yul\":10368:10390   */\n      add\n        /* \"#utility.yul\":10362:10366   */\n      dup9\n        /* \"#utility.yul\":10355:10391   */\n      sstore\n        /* \"#utility.yul\":9790:10401   */\n      pop\n      pop\n      pop\n        /* \"#utility.yul\":9753:10640   */\n    tag_206:\n      pop\n        /* \"#utility.yul\":9343:10646   */\n      pop\n      pop\n      pop\n        /* \"#utility.yul\":9251:10646   */\n      pop\n      pop\n      jump\t// out\n\n    auxdata: 0xa2646970667358221220eaec9a47e89566ca829339aa733660c37a751df0a3fdcc9ef9ef7063c9bed87b64736f6c634300080f0033\n}\n",
				"bytecode": {
					"linkReferences": {},
					"object": "60806040523480156200001157600080fd5b50604051620010ae380380620010ae833981810160405281019062000037919062000213565b826000908162000048919062000517565b5081600190816200005a919062000517565b5080600290816200006c919062000517565b50505050620005fe565b6000604051905090565b600080fd5b600080fd5b600080fd5b600080fd5b6000601f19601f8301169050919050565b7f4e487b7100000000000000000000000000000000000000000000000000000000600052604160045260246000fd5b620000df8262000094565b810181811067ffffffffffffffff82111715620001015762000100620000a5565b5b80604052505050565b60006200011662000076565b9050620001248282620000d4565b919050565b600067ffffffffffffffff821115620001475762000146620000a5565b5b620001528262000094565b9050602081019050919050565b60005b838110156200017f57808201518184015260208101905062000162565b838111156200018f576000848401525b50505050565b6000620001ac620001a68462000129565b6200010a565b905082815260208101848484011115620001cb57620001ca6200008f565b5b620001d88482856200015f565b509392505050565b600082601f830112620001f857620001f76200008a565b5b81516200020a84826020860162000195565b91505092915050565b6000806000606084860312156200022f576200022e62000080565b5b600084015167ffffffffffffffff81111562000250576200024f62000085565b5b6200025e86828701620001e0565b935050602084015167ffffffffffffffff81111562000282576200028162000085565b5b6200029086828701620001e0565b925050604084015167ffffffffffffffff811115620002b457620002b362000085565b5b620002c286828701620001e0565b9150509250925092565b600081519050919050565b7f4e487b7100000000000000000000000000000000000000000000000000000000600052602260045260246000fd5b600060028204905060018216806200031f57607f821691505b602082108103620003355762000334620002d7565b5b50919050565b60008190508160005260206000209050919050565b60006020601f8301049050919050565b600082821b905092915050565b6000600883026200039f7fffffffffffffffffffffffffffffffffffffffffffffffffffffffffffffffff8262000360565b620003ab868362000360565b95508019841693508086168417925050509392505050565b6000819050919050565b6000819050919050565b6000620003f8620003f2620003ec84620003c3565b620003cd565b620003c3565b9050919050565b6000819050919050565b6200041483620003d7565b6200042c6200042382620003ff565b8484546200036d565b825550505050565b600090565b6200044362000434565b6200045081848462000409565b505050565b5b8181101562000478576200046c60008262000439565b60018101905062000456565b5050565b601f821115620004c75762000491816200033b565b6200049c8462000350565b81016020851015620004ac578190505b620004c4620004bb8562000350565b83018262000455565b50505b505050565b600082821c905092915050565b6000620004ec60001984600802620004cc565b1980831691505092915050565b6000620005078383620004d9565b9150826002028217905092915050565b6200052282620002cc565b67ffffffffffffffff8111156200053e576200053d620000a5565b5b6200054a825462000306565b620005578282856200047c565b600060209050601f8311600181146200058f57600084156200057a578287015190505b620005868582620004f9565b865550620005f6565b601f1984166200059f866200033b565b60005b82811015620005c957848901518255600182019150602085019450602081019050620005a2565b86831015620005e95784890151620005e5601f891682620004d9565b8355505b6001600288020188555050505b505050505050565b610aa0806200060e6000396000f3fe608060405234801561001057600080fd5b50600436106100575760003560e01c80636d7366891461005c578063820e93f51461007a5780639749a2f014610098578063a6c83aa6146100b4578063e76fe515146100d2575b600080fd5b6100646100f2565b6040516100719190610524565b60405180910390f35b610082610180565b60405161008f9190610524565b60405180910390f35b6100b260048036038101906100ad919061068f565b61020e565b005b6100bc610243565b6040516100c99190610524565b60405180910390f35b6100da6102d1565b6040516100e993929190610736565b60405180910390f35b600180546100ff906107b1565b80601f016020809104026020016040519081016040528092919081815260200182805461012b906107b1565b80156101785780601f1061014d57610100808354040283529160200191610178565b820191906000526020600020905b81548152906001019060200180831161015b57829003601f168201915b505050505081565b6000805461018d906107b1565b80601f01602080910402602001604051908101604052809291908181526020018280546101b9906107b1565b80156102065780601f106101db57610100808354040283529160200191610206565b820191906000526020600020905b8154815290600101906020018083116101e957829003601f168201915b505050505081565b826000908161021d9190610998565b50816001908161022d9190610998565b50806002908161023d9190610998565b50505050565b60028054610250906107b1565b80601f016020809104026020016040519081016040528092919081815260200182805461027c906107b1565b80156102c95780601f1061029e576101008083540402835291602001916102c9565b820191906000526020600020905b8154815290600101906020018083116102ac57829003601f168201915b505050505081565b60608060606000600160028280546102e8906107b1565b80601f0160208091040260200160405190810160405280929190818152602001828054610314906107b1565b80156103615780601f1061033657610100808354040283529160200191610361565b820191906000526020600020905b81548152906001019060200180831161034457829003601f168201915b50505050509250818054610374906107b1565b80601f01602080910402602001604051908101604052809291908181526020018280546103a0906107b1565b80156103ed5780601f106103c2576101008083540402835291602001916103ed565b820191906000526020600020905b8154815290600101906020018083116103d057829003601f168201915b50505050509150808054610400906107b1565b80601f016020809104026020016040519081016040528092919081815260200182805461042c906107b1565b80156104795780601f1061044e57610100808354040283529160200191610479565b820191906000526020600020905b81548152906001019060200180831161045c57829003601f168201915b50505050509050925092509250909192565b600081519050919050565b600082825260208201905092915050565b60005b838110156104c55780820151818401526020810190506104aa565b838111156104d4576000848401525b50505050565b6000601f19601f8301169050919050565b60006104f68261048b565b6105008185610496565b93506105108185602086016104a7565b610519816104da565b840191505092915050565b6000602082019050818103600083015261053e81846104eb565b905092915050565b6000604051905090565b600080fd5b600080fd5b600080fd5b600080fd5b7f4e487b7100000000000000000000000000000000000000000000000000000000600052604160045260246000fd5b61059c826104da565b810181811067ffffffffffffffff821117156105bb576105ba610564565b5b80604052505050565b60006105ce610546565b90506105da8282610593565b919050565b600067ffffffffffffffff8211156105fa576105f9610564565b5b610603826104da565b9050602081019050919050565b82818337600083830152505050565b600061063261062d846105df565b6105c4565b90508281526020810184848401111561064e5761064d61055f565b5b610659848285610610565b509392505050565b600082601f8301126106765761067561055a565b5b813561068684826020860161061f565b91505092915050565b6000806000606084860312156106a8576106a7610550565b5b600084013567ffffffffffffffff8111156106c6576106c5610555565b5b6106d286828701610661565b935050602084013567ffffffffffffffff8111156106f3576106f2610555565b5b6106ff86828701610661565b925050604084013567ffffffffffffffff8111156107205761071f610555565b5b61072c86828701610661565b9150509250925092565b6000606082019050818103600083015261075081866104eb565b9050818103602083015261076481856104eb565b9050818103604083015261077881846104eb565b9050949350505050565b7f4e487b7100000000000000000000000000000000000000000000000000000000600052602260045260246000fd5b600060028204905060018216806107c957607f821691505b6020821081036107dc576107db610782565b5b50919050565b60008190508160005260206000209050919050565b60006020601f8301049050919050565b600082821b905092915050565b6000600883026108447fffffffffffffffffffffffffffffffffffffffffffffffffffffffffffffffff82610807565b61084e8683610807565b95508019841693508086168417925050509392505050565b6000819050919050565b6000819050919050565b600061089561089061088b84610866565b610870565b610866565b9050919050565b6000819050919050565b6108af8361087a565b6108c36108bb8261089c565b848454610814565b825550505050565b600090565b6108d86108cb565b6108e38184846108a6565b505050565b5b81811015610907576108fc6000826108d0565b6001810190506108e9565b5050565b601f82111561094c5761091d816107e2565b610926846107f7565b81016020851015610935578190505b610949610941856107f7565b8301826108e8565b50505b505050565b600082821c905092915050565b600061096f60001984600802610951565b1980831691505092915050565b6000610988838361095e565b9150826002028217905092915050565b6109a18261048b565b67ffffffffffffffff8111156109ba576109b9610564565b5b6109c482546107b1565b6109cf82828561090b565b600060209050601f831160018114610a0257600084156109f0578287015190505b6109fa858261097c565b865550610a62565b601f198416610a10866107e2565b60005b82811015610a3857848901518255600182019150602085019450602081019050610a13565b86831015610a555784890151610a51601f89168261095e565b8355505b6001600288020188555050505b50505050505056fea2646970667358221220eaec9a47e89566ca829339aa733660c37a751df0a3fdcc9ef9ef7063c9bed87b64736f6c634300080f0033",
					"opcodes": "PUSH1 0x80 PUSH1 0x40 MSTORE CALLVALUE DUP1 ISZERO PUSH3 0x11 JUMPI PUSH1 0x0 DUP1 REVERT JUMPDEST POP PUSH1 0x40 MLOAD PUSH3 0x10AE CODESIZE SUB DUP1 PUSH3 0x10AE DUP4 CODECOPY DUP2 DUP2 ADD PUSH1 0x40 MSTORE DUP2 ADD SWAP1 PUSH3 0x37 SWAP2 SWAP1 PUSH3 0x213 JUMP JUMPDEST DUP3 PUSH1 0x0 SWAP1 DUP2 PUSH3 0x48 SWAP2 SWAP1 PUSH3 0x517 JUMP JUMPDEST POP DUP2 PUSH1 0x1 SWAP1 DUP2 PUSH3 0x5A SWAP2 SWAP1 PUSH3 0x517 JUMP JUMPDEST POP DUP1 PUSH1 0x2 SWAP1 DUP2 PUSH3 0x6C SWAP2 SWAP1 PUSH3 0x517 JUMP JUMPDEST POP POP POP POP PUSH3 0x5FE JUMP JUMPDEST PUSH1 0x0 PUSH1 0x40 MLOAD SWAP1 POP SWAP1 JUMP JUMPDEST PUSH1 0x0 DUP1 REVERT JUMPDEST PUSH1 0x0 DUP1 REVERT JUMPDEST PUSH1 0x0 DUP1 REVERT JUMPDEST PUSH1 0x0 DUP1 REVERT JUMPDEST PUSH1 0x0 PUSH1 0x1F NOT PUSH1 0x1F DUP4 ADD AND SWAP1 POP SWAP2 SWAP1 POP JUMP JUMPDEST PUSH32 0x4E487B7100000000000000000000000000000000000000000000000000000000 PUSH1 0x0 MSTORE PUSH1 0x41 PUSH1 0x4 MSTORE PUSH1 0x24 PUSH1 0x0 REVERT JUMPDEST PUSH3 0xDF DUP3 PUSH3 0x94 JUMP JUMPDEST DUP2 ADD DUP2 DUP2 LT PUSH8 0xFFFFFFFFFFFFFFFF DUP3 GT OR ISZERO PUSH3 0x101 JUMPI PUSH3 0x100 PUSH3 0xA5 JUMP JUMPDEST JUMPDEST DUP1 PUSH1 0x40 MSTORE POP POP POP JUMP JUMPDEST PUSH1 0x0 PUSH3 0x116 PUSH3 0x76 JUMP JUMPDEST SWAP1 POP PUSH3 0x124 DUP3 DUP3 PUSH3 0xD4 JUMP JUMPDEST SWAP2 SWAP1 POP JUMP JUMPDEST PUSH1 0x0 PUSH8 0xFFFFFFFFFFFFFFFF DUP3 GT ISZERO PUSH3 0x147 JUMPI PUSH3 0x146 PUSH3 0xA5 JUMP JUMPDEST JUMPDEST PUSH3 0x152 DUP3 PUSH3 0x94 JUMP JUMPDEST SWAP1 POP PUSH1 0x20 DUP2 ADD SWAP1 POP SWAP2 SWAP1 POP JUMP JUMPDEST PUSH1 0x0 JUMPDEST DUP4 DUP2 LT ISZERO PUSH3 0x17F JUMPI DUP1 DUP3 ADD MLOAD DUP2 DUP5 ADD MSTORE PUSH1 0x20 DUP2 ADD SWAP1 POP PUSH3 0x162 JUMP JUMPDEST DUP4 DUP2 GT ISZERO PUSH3 0x18F JUMPI PUSH1 0x0 DUP5 DUP5 ADD MSTORE JUMPDEST POP POP POP POP JUMP JUMPDEST PUSH1 0x0 PUSH3 0x1AC PUSH3 0x1A6 DUP5 PUSH3 0x129 JUMP JUMPDEST PUSH3 0x10A JUMP JUMPDEST SWAP1 POP DUP3 DUP2 MSTORE PUSH1 0x20 DUP2 ADD DUP5 DUP5 DUP5 ADD GT ISZERO PUSH3 0x1CB JUMPI PUSH3 0x1CA PUSH3 0x8F JUMP JUMPDEST JUMPDEST PUSH3 0x1D8 DUP5 DUP3 DUP6 PUSH3 0x15F JUMP JUMPDEST POP SWAP4 SWAP3 POP POP POP JUMP JUMPDEST PUSH1 0x0 DUP3 PUSH1 0x1F DUP4 ADD SLT PUSH3 0x1F8 JUMPI PUSH3 0x1F7 PUSH3 0x8A JUMP JUMPDEST JUMPDEST DUP2 MLOAD PUSH3 0x20A DUP5 DUP3 PUSH1 0x20 DUP7 ADD PUSH3 0x195 JUMP JUMPDEST SWAP2 POP POP SWAP3 SWAP2 POP POP JUMP JUMPDEST PUSH1 0x0 DUP1 PUSH1 0x0 PUSH1 0x60 DUP5 DUP7 SUB SLT ISZERO PUSH3 0x22F JUMPI PUSH3 0x22E PUSH3 0x80 JUMP JUMPDEST JUMPDEST PUSH1 0x0 DUP5 ADD MLOAD PUSH8 0xFFFFFFFFFFFFFFFF DUP2 GT ISZERO PUSH3 0x250 JUMPI PUSH3 0x24F PUSH3 0x85 JUMP JUMPDEST JUMPDEST PUSH3 0x25E DUP7 DUP3 DUP8 ADD PUSH3 0x1E0 JUMP JUMPDEST SWAP4 POP POP PUSH1 0x20 DUP5 ADD MLOAD PUSH8 0xFFFFFFFFFFFFFFFF DUP2 GT ISZERO PUSH3 0x282 JUMPI PUSH3 0x281 PUSH3 0x85 JUMP JUMPDEST JUMPDEST PUSH3 0x290 DUP7 DUP3 DUP8 ADD PUSH3 0x1E0 JUMP JUMPDEST SWAP3 POP POP PUSH1 0x40 DUP5 ADD MLOAD PUSH8 0xFFFFFFFFFFFFFFFF DUP2 GT ISZERO PUSH3 0x2B4 JUMPI PUSH3 0x2B3 PUSH3 0x85 JUMP JUMPDEST JUMPDEST PUSH3 0x2C2 DUP7 DUP3 DUP8 ADD PUSH3 0x1E0 JUMP JUMPDEST SWAP2 POP POP SWAP3 POP SWAP3 POP SWAP3 JUMP JUMPDEST PUSH1 0x0 DUP2 MLOAD SWAP1 POP SWAP2 SWAP1 POP JUMP JUMPDEST PUSH32 0x4E487B7100000000000000000000000000000000000000000000000000000000 PUSH1 0x0 MSTORE PUSH1 0x22 PUSH1 0x4 MSTORE PUSH1 0x24 PUSH1 0x0 REVERT JUMPDEST PUSH1 0x0 PUSH1 0x2 DUP3 DIV SWAP1 POP PUSH1 0x1 DUP3 AND DUP1 PUSH3 0x31F JUMPI PUSH1 0x7F DUP3 AND SWAP2 POP JUMPDEST PUSH1 0x20 DUP3 LT DUP2 SUB PUSH3 0x335 JUMPI PUSH3 0x334 PUSH3 0x2D7 JUMP JUMPDEST JUMPDEST POP SWAP2 SWAP1 POP JUMP JUMPDEST PUSH1 0x0 DUP2 SWAP1 POP DUP2 PUSH1 0x0 MSTORE PUSH1 0x20 PUSH1 0x0 KECCAK256 SWAP1 POP SWAP2 SWAP1 POP JUMP JUMPDEST PUSH1 0x0 PUSH1 0x20 PUSH1 0x1F DUP4 ADD DIV SWAP1 POP SWAP2 SWAP1 POP JUMP JUMPDEST PUSH1 0x0 DUP3 DUP3 SHL SWAP1 POP SWAP3 SWAP2 POP POP JUMP JUMPDEST PUSH1 0x0 PUSH1 0x8 DUP4 MUL PUSH3 0x39F PUSH32 0xFFFFFFFFFFFFFFFFFFFFFFFFFFFFFFFFFFFFFFFFFFFFFFFFFFFFFFFFFFFFFFFF DUP3 PUSH3 0x360 JUMP JUMPDEST PUSH3 0x3AB DUP7 DUP4 PUSH3 0x360 JUMP JUMPDEST SWAP6 POP DUP1 NOT DUP5 AND SWAP4 POP DUP1 DUP7 AND DUP5 OR SWAP3 POP POP POP SWAP4 SWAP3 POP POP POP JUMP JUMPDEST PUSH1 0x0 DUP2 SWAP1 POP SWAP2 SWAP1 POP JUMP JUMPDEST PUSH1 0x0 DUP2 SWAP1 POP SWAP2 SWAP1 POP JUMP JUMPDEST PUSH1 0x0 PUSH3 0x3F8 PUSH3 0x3F2 PUSH3 0x3EC DUP5 PUSH3 0x3C3 JUMP JUMPDEST PUSH3 0x3CD JUMP JUMPDEST PUSH3 0x3C3 JUMP JUMPDEST SWAP1 POP SWAP2 SWAP1 POP JUMP JUMPDEST PUSH1 0x0 DUP2 SWAP1 POP SWAP2 SWAP1 POP JUMP JUMPDEST PUSH3 0x414 DUP4 PUSH3 0x3D7 JUMP JUMPDEST PUSH3 0x42C PUSH3 0x423 DUP3 PUSH3 0x3FF JUMP JUMPDEST DUP5 DUP5 SLOAD PUSH3 0x36D JUMP JUMPDEST DUP3 SSTORE POP POP POP POP JUMP JUMPDEST PUSH1 0x0 SWAP1 JUMP JUMPDEST PUSH3 0x443 PUSH3 0x434 JUMP JUMPDEST PUSH3 0x450 DUP2 DUP5 DUP5 PUSH3 0x409 JUMP JUMPDEST POP POP POP JUMP JUMPDEST JUMPDEST DUP2 DUP2 LT ISZERO PUSH3 0x478 JUMPI PUSH3 0x46C PUSH1 0x0 DUP3 PUSH3 0x439 JUMP JUMPDEST PUSH1 0x1 DUP2 ADD SWAP1 POP PUSH3 0x456 JUMP JUMPDEST POP POP JUMP JUMPDEST PUSH1 0x1F DUP3 GT ISZERO PUSH3 0x4C7 JUMPI PUSH3 0x491 DUP2 PUSH3 0x33B JUMP JUMPDEST PUSH3 0x49C DUP5 PUSH3 0x350 JUMP JUMPDEST DUP2 ADD PUSH1 0x20 DUP6 LT ISZERO PUSH3 0x4AC JUMPI DUP2 SWAP1 POP JUMPDEST PUSH3 0x4C4 PUSH3 0x4BB DUP6 PUSH3 0x350 JUMP JUMPDEST DUP4 ADD DUP3 PUSH3 0x455 JUMP JUMPDEST POP POP JUMPDEST POP POP POP JUMP JUMPDEST PUSH1 0x0 DUP3 DUP3 SHR SWAP1 POP SWAP3 SWAP2 POP POP JUMP JUMPDEST PUSH1 0x0 PUSH3 0x4EC PUSH1 0x0 NOT DUP5 PUSH1 0x8 MUL PUSH3 0x4CC JUMP JUMPDEST NOT DUP1 DUP4 AND SWAP2 POP POP SWAP3 SWAP2 POP POP JUMP JUMPDEST PUSH1 0x0 PUSH3 0x507 DUP4 DUP4 PUSH3 0x4D9 JUMP JUMPDEST SWAP2 POP DUP3 PUSH1 0x2 MUL DUP3 OR SWAP1 POP SWAP3 SWAP2 POP POP JUMP JUMPDEST PUSH3 0x522 DUP3 PUSH3 0x2CC JUMP JUMPDEST PUSH8 0xFFFFFFFFFFFFFFFF DUP2 GT ISZERO PUSH3 0x53E JUMPI PUSH3 0x53D PUSH3 0xA5 JUMP JUMPDEST JUMPDEST PUSH3 0x54A DUP3 SLOAD PUSH3 0x306 JUMP JUMPDEST PUSH3 0x557 DUP3 DUP3 DUP6 PUSH3 0x47C JUMP JUMPDEST PUSH1 0x0 PUSH1 0x20 SWAP1 POP PUSH1 0x1F DUP4 GT PUSH1 0x1 DUP2 EQ PUSH3 0x58F JUMPI PUSH1 0x0 DUP5 ISZERO PUSH3 0x57A JUMPI DUP3 DUP8 ADD MLOAD SWAP1 POP JUMPDEST PUSH3 0x586 DUP6 DUP3 PUSH3 0x4F9 JUMP JUMPDEST DUP7 SSTORE POP PUSH3 0x5F6 JUMP JUMPDEST PUSH1 0x1F NOT DUP5 AND PUSH3 0x59F DUP7 PUSH3 0x33B JUMP JUMPDEST PUSH1 0x0 JUMPDEST DUP3 DUP2 LT ISZERO PUSH3 0x5C9 JUMPI DUP5 DUP10 ADD MLOAD DUP3 SSTORE PUSH1 0x1 DUP3 ADD SWAP2 POP PUSH1 0x20 DUP6 ADD SWAP5 POP PUSH1 0x20 DUP2 ADD SWAP1 POP PUSH3 0x5A2 JUMP JUMPDEST DUP7 DUP4 LT ISZERO PUSH3 0x5E9 JUMPI DUP5 DUP10 ADD MLOAD PUSH3 0x5E5 PUSH1 0x1F DUP10 AND DUP3 PUSH3 0x4D9 JUMP JUMPDEST DUP4 SSTORE POP JUMPDEST PUSH1 0x1 PUSH1 0x2 DUP9 MUL ADD DUP9 SSTORE POP POP POP JUMPDEST POP POP POP POP POP POP JUMP JUMPDEST PUSH2 0xAA0 DUP1 PUSH3 0x60E PUSH1 0x0 CODECOPY PUSH1 0x0 RETURN INVALID PUSH1 0x80 PUSH1 0x40 MSTORE CALLVALUE DUP1 ISZERO PUSH2 0x10 JUMPI PUSH1 0x0 DUP1 REVERT JUMPDEST POP PUSH1 0x4 CALLDATASIZE LT PUSH2 0x57 JUMPI PUSH1 0x0 CALLDATALOAD PUSH1 0xE0 SHR DUP1 PUSH4 0x6D736689 EQ PUSH2 0x5C JUMPI DUP1 PUSH4 0x820E93F5 EQ PUSH2 0x7A JUMPI DUP1 PUSH4 0x9749A2F0 EQ PUSH2 0x98 JUMPI DUP1 PUSH4 0xA6C83AA6 EQ PUSH2 0xB4 JUMPI DUP1 PUSH4 0xE76FE515 EQ PUSH2 0xD2 JUMPI JUMPDEST PUSH1 0x0 DUP1 REVERT JUMPDEST PUSH2 0x64 PUSH2 0xF2 JUMP JUMPDEST PUSH1 0x40 MLOAD PUSH2 0x71 SWAP2 SWAP1 PUSH2 0x524 JUMP JUMPDEST PUSH1 0x40 MLOAD DUP1 SWAP2 SUB SWAP1 RETURN JUMPDEST PUSH2 0x82 PUSH2 0x180 JUMP JUMPDEST PUSH1 0x40 MLOAD PUSH2 0x8F SWAP2 SWAP1 PUSH2 0x524 JUMP JUMPDEST PUSH1 0x40 MLOAD DUP1 SWAP2 SUB SWAP1 RETURN JUMPDEST PUSH2 0xB2 PUSH1 0x4 DUP1 CALLDATASIZE SUB DUP2 ADD SWAP1 PUSH2 0xAD SWAP2 SWAP1 PUSH2 0x68F JUMP JUMPDEST PUSH2 0x20E JUMP JUMPDEST STOP JUMPDEST PUSH2 0xBC PUSH2 0x243 JUMP JUMPDEST PUSH1 0x40 MLOAD PUSH2 0xC9 SWAP2 SWAP1 PUSH2 0x524 JUMP JUMPDEST PUSH1 0x40 MLOAD DUP1 SWAP2 SUB SWAP1 RETURN JUMPDEST PUSH2 0xDA PUSH2 0x2D1 JUMP JUMPDEST PUSH1 0x40 MLOAD PUSH2 0xE9 SWAP4 SWAP3 SWAP2 SWAP1 PUSH2 0x736 JUMP JUMPDEST PUSH1 0x40 MLOAD DUP1 SWAP2 SUB SWAP1 RETURN JUMPDEST PUSH1 0x1 DUP1 SLOAD PUSH2 0xFF SWAP1 PUSH2 0x7B1 JUMP JUMPDEST DUP1 PUSH1 0x1F ADD PUSH1 0x20 DUP1 SWAP2 DIV MUL PUSH1 0x20 ADD PUSH1 0x40 MLOAD SWAP1 DUP2 ADD PUSH1 0x40 MSTORE DUP1 SWAP3 SWAP2 SWAP1 DUP2 DUP2 MSTORE PUSH1 0x20 ADD DUP3 DUP1 SLOAD PUSH2 0x12B SWAP1 PUSH2 0x7B1 JUMP JUMPDEST DUP1 ISZERO PUSH2 0x178 JUMPI DUP1 PUSH1 0x1F LT PUSH2 0x14D JUMPI PUSH2 0x100 DUP1 DUP4 SLOAD DIV MUL DUP4 MSTORE SWAP2 PUSH1 0x20 ADD SWAP2 PUSH2 0x178 JUMP JUMPDEST DUP3 ADD SWAP2 SWAP1 PUSH1 0x0 MSTORE PUSH1 0x20 PUSH1 0x0 KECCAK256 SWAP1 JUMPDEST DUP2 SLOAD DUP2 MSTORE SWAP1 PUSH1 0x1 ADD SWAP1 PUSH1 0x20 ADD DUP1 DUP4 GT PUSH2 0x15B JUMPI DUP3 SWAP1 SUB PUSH1 0x1F AND DUP3 ADD SWAP2 JUMPDEST POP POP POP POP POP DUP2 JUMP JUMPDEST PUSH1 0x0 DUP1 SLOAD PUSH2 0x18D SWAP1 PUSH2 0x7B1 JUMP JUMPDEST DUP1 PUSH1 0x1F ADD PUSH1 0x20 DUP1 SWAP2 DIV MUL PUSH1 0x20 ADD PUSH1 0x40 MLOAD SWAP1 DUP2 ADD PUSH1 0x40 MSTORE DUP1 SWAP3 SWAP2 SWAP1 DUP2 DUP2 MSTORE PUSH1 0x20 ADD DUP3 DUP1 SLOAD PUSH2 0x1B9 SWAP1 PUSH2 0x7B1 JUMP JUMPDEST DUP1 ISZERO PUSH2 0x206 JUMPI DUP1 PUSH1 0x1F LT PUSH2 0x1DB JUMPI PUSH2 0x100 DUP1 DUP4 SLOAD DIV MUL DUP4 MSTORE SWAP2 PUSH1 0x20 ADD SWAP2 PUSH2 0x206 JUMP JUMPDEST DUP3 ADD SWAP2 SWAP1 PUSH1 0x0 MSTORE PUSH1 0x20 PUSH1 0x0 KECCAK256 SWAP1 JUMPDEST DUP2 SLOAD DUP2 MSTORE SWAP1 PUSH1 0x1 ADD SWAP1 PUSH1 0x20 ADD DUP1 DUP4 GT PUSH2 0x1E9 JUMPI DUP3 SWAP1 SUB PUSH1 0x1F AND DUP3 ADD SWAP2 JUMPDEST POP POP POP POP POP DUP2 JUMP JUMPDEST DUP3 PUSH1 0x0 SWAP1 DUP2 PUSH2 0x21D SWAP2 SWAP1 PUSH2 0x998 JUMP JUMPDEST POP DUP2 PUSH1 0x1 SWAP1 DUP2 PUSH2 0x22D SWAP2 SWAP1 PUSH2 0x998 JUMP JUMPDEST POP DUP1 PUSH1 0x2 SWAP1 DUP2 PUSH2 0x23D SWAP2 SWAP1 PUSH2 0x998 JUMP JUMPDEST POP POP POP POP JUMP JUMPDEST PUSH1 0x2 DUP1 SLOAD PUSH2 0x250 SWAP1 PUSH2 0x7B1 JUMP JUMPDEST DUP1 PUSH1 0x1F ADD PUSH1 0x20 DUP1 SWAP2 DIV MUL PUSH1 0x20 ADD PUSH1 0x40 MLOAD SWAP1 DUP2 ADD PUSH1 0x40 MSTORE DUP1 SWAP3 SWAP2 SWAP1 DUP2 DUP2 MSTORE PUSH1 0x20 ADD DUP3 DUP1 SLOAD PUSH2 0x27C SWAP1 PUSH2 0x7B1 JUMP JUMPDEST DUP1 ISZERO PUSH2 0x2C9 JUMPI DUP1 PUSH1 0x1F LT PUSH2 0x29E JUMPI PUSH2 0x100 DUP1 DUP4 SLOAD DIV MUL DUP4 MSTORE SWAP2 PUSH1 0x20 ADD SWAP2 PUSH2 0x2C9 JUMP JUMPDEST DUP3 ADD SWAP2 SWAP1 PUSH1 0x0 MSTORE PUSH1 0x20 PUSH1 0x0 KECCAK256 SWAP1 JUMPDEST DUP2 SLOAD DUP2 MSTORE SWAP1 PUSH1 0x1 ADD SWAP1 PUSH1 0x20 ADD DUP1 DUP4 GT PUSH2 0x2AC JUMPI DUP3 SWAP1 SUB PUSH1 0x1F AND DUP3 ADD SWAP2 JUMPDEST POP POP POP POP POP DUP2 JUMP JUMPDEST PUSH1 0x60 DUP1 PUSH1 0x60 PUSH1 0x0 PUSH1 0x1 PUSH1 0x2 DUP3 DUP1 SLOAD PUSH2 0x2E8 SWAP1 PUSH2 0x7B1 JUMP JUMPDEST DUP1 PUSH1 0x1F ADD PUSH1 0x20 DUP1 SWAP2 DIV MUL PUSH1 0x20 ADD PUSH1 0x40 MLOAD SWAP1 DUP2 ADD PUSH1 0x40 MSTORE DUP1 SWAP3 SWAP2 SWAP1 DUP2 DUP2 MSTORE PUSH1 0x20 ADD DUP3 DUP1 SLOAD PUSH2 0x314 SWAP1 PUSH2 0x7B1 JUMP JUMPDEST DUP1 ISZERO PUSH2 0x361 JUMPI DUP1 PUSH1 0x1F LT PUSH2 0x336 JUMPI PUSH2 0x100 DUP1 DUP4 SLOAD DIV MUL DUP4 MSTORE SWAP2 PUSH1 0x20 ADD SWAP2 PUSH2 0x361 JUMP JUMPDEST DUP3 ADD SWAP2 SWAP1 PUSH1 0x0 MSTORE PUSH1 0x20 PUSH1 0x0 KECCAK256 SWAP1 JUMPDEST DUP2 SLOAD DUP2 MSTORE SWAP1 PUSH1 0x1 ADD SWAP1 PUSH1 0x20 ADD DUP1 DUP4 GT PUSH2 0x344 JUMPI DUP3 SWAP1 SUB PUSH1 0x1F AND DUP3 ADD SWAP2 JUMPDEST POP POP POP POP POP SWAP3 POP DUP2 DUP1 SLOAD PUSH2 0x374 SWAP1 PUSH2 0x7B1 JUMP JUMPDEST DUP1 PUSH1 0x1F ADD PUSH1 0x20 DUP1 SWAP2 DIV MUL PUSH1 0x20 ADD PUSH1 0x40 MLOAD SWAP1 DUP2 ADD PUSH1 0x40 MSTORE DUP1 SWAP3 SWAP2 SWAP1 DUP2 DUP2 MSTORE PUSH1 0x20 ADD DUP3 DUP1 SLOAD PUSH2 0x3A0 SWAP1 PUSH2 0x7B1 JUMP JUMPDEST DUP1 ISZERO PUSH2 0x3ED JUMPI DUP1 PUSH1 0x1F LT PUSH2 0x3C2 JUMPI PUSH2 0x100 DUP1 DUP4 SLOAD DIV MUL DUP4 MSTORE SWAP2 PUSH1 0x20 ADD SWAP2 PUSH2 0x3ED JUMP JUMPDEST DUP3 ADD SWAP2 SWAP1 PUSH1 0x0 MSTORE PUSH1 0x20 PUSH1 0x0 KECCAK256 SWAP1 JUMPDEST DUP2 SLOAD DUP2 MSTORE SWAP1 PUSH1 0x1 ADD SWAP1 PUSH1 0x20 ADD DUP1 DUP4 GT PUSH2 0x3D0 JUMPI DUP3 SWAP1 SUB PUSH1 0x1F AND DUP3 ADD SWAP2 JUMPDEST POP POP POP POP POP SWAP2 POP DUP1 DUP1 SLOAD PUSH2 0x400 SWAP1 PUSH2 0x7B1 JUMP JUMPDEST DUP1 PUSH1 0x1F ADD PUSH1 0x20 DUP1 SWAP2 DIV MUL PUSH1 0x20 ADD PUSH1 0x40 MLOAD SWAP1 DUP2 ADD PUSH1 0x40 MSTORE DUP1 SWAP3 SWAP2 SWAP1 DUP2 DUP2 MSTORE PUSH1 0x20 ADD DUP3 DUP1 SLOAD PUSH2 0x42C SWAP1 PUSH2 0x7B1 JUMP JUMPDEST DUP1 ISZERO PUSH2 0x479 JUMPI DUP1 PUSH1 0x1F LT PUSH2 0x44E JUMPI PUSH2 0x100 DUP1 DUP4 SLOAD DIV MUL DUP4 MSTORE SWAP2 PUSH1 0x20 ADD SWAP2 PUSH2 0x479 JUMP JUMPDEST DUP3 ADD SWAP2 SWAP1 PUSH1 0x0 MSTORE PUSH1 0x20 PUSH1 0x0 KECCAK256 SWAP1 JUMPDEST DUP2 SLOAD DUP2 MSTORE SWAP1 PUSH1 0x1 ADD SWAP1 PUSH1 0x20 ADD DUP1 DUP4 GT PUSH2 0x45C JUMPI DUP3 SWAP1 SUB PUSH1 0x1F AND DUP3 ADD SWAP2 JUMPDEST POP POP POP POP POP SWAP1 POP SWAP3 POP SWAP3 POP SWAP3 POP SWAP1 SWAP2 SWAP3 JUMP JUMPDEST PUSH1 0x0 DUP2 MLOAD SWAP1 POP SWAP2 SWAP1 POP JUMP JUMPDEST PUSH1 0x0 DUP3 DUP3 MSTORE PUSH1 0x20 DUP3 ADD SWAP1 POP SWAP3 SWAP2 POP POP JUMP JUMPDEST PUSH1 0x0 JUMPDEST DUP4 DUP2 LT ISZERO PUSH2 0x4C5 JUMPI DUP1 DUP3 ADD MLOAD DUP2 DUP5 ADD MSTORE PUSH1 0x20 DUP2 ADD SWAP1 POP PUSH2 0x4AA JUMP JUMPDEST DUP4 DUP2 GT ISZERO PUSH2 0x4D4 JUMPI PUSH1 0x0 DUP5 DUP5 ADD MSTORE JUMPDEST POP POP POP POP JUMP JUMPDEST PUSH1 0x0 PUSH1 0x1F NOT PUSH1 0x1F DUP4 ADD AND SWAP1 POP SWAP2 SWAP1 POP JUMP JUMPDEST PUSH1 0x0 PUSH2 0x4F6 DUP3 PUSH2 0x48B JUMP JUMPDEST PUSH2 0x500 DUP2 DUP6 PUSH2 0x496 JUMP JUMPDEST SWAP4 POP PUSH2 0x510 DUP2 DUP6 PUSH1 0x20 DUP7 ADD PUSH2 0x4A7 JUMP JUMPDEST PUSH2 0x519 DUP2 PUSH2 0x4DA JUMP JUMPDEST DUP5 ADD SWAP2 POP POP SWAP3 SWAP2 POP POP JUMP JUMPDEST PUSH1 0x0 PUSH1 0x20 DUP3 ADD SWAP1 POP DUP2 DUP2 SUB PUSH1 0x0 DUP4 ADD MSTORE PUSH2 0x53E DUP2 DUP5 PUSH2 0x4EB JUMP JUMPDEST SWAP1 POP SWAP3 SWAP2 POP POP JUMP JUMPDEST PUSH1 0x0 PUSH1 0x40 MLOAD SWAP1 POP SWAP1 JUMP JUMPDEST PUSH1 0x0 DUP1 REVERT JUMPDEST PUSH1 0x0 DUP1 REVERT JUMPDEST PUSH1 0x0 DUP1 REVERT JUMPDEST PUSH1 0x0 DUP1 REVERT JUMPDEST PUSH32 0x4E487B7100000000000000000000000000000000000000000000000000000000 PUSH1 0x0 MSTORE PUSH1 0x41 PUSH1 0x4 MSTORE PUSH1 0x24 PUSH1 0x0 REVERT JUMPDEST PUSH2 0x59C DUP3 PUSH2 0x4DA JUMP JUMPDEST DUP2 ADD DUP2 DUP2 LT PUSH8 0xFFFFFFFFFFFFFFFF DUP3 GT OR ISZERO PUSH2 0x5BB JUMPI PUSH2 0x5BA PUSH2 0x564 JUMP JUMPDEST JUMPDEST DUP1 PUSH1 0x40 MSTORE POP POP POP JUMP JUMPDEST PUSH1 0x0 PUSH2 0x5CE PUSH2 0x546 JUMP JUMPDEST SWAP1 POP PUSH2 0x5DA DUP3 DUP3 PUSH2 0x593 JUMP JUMPDEST SWAP2 SWAP1 POP JUMP JUMPDEST PUSH1 0x0 PUSH8 0xFFFFFFFFFFFFFFFF DUP3 GT ISZERO PUSH2 0x5FA JUMPI PUSH2 0x5F9 PUSH2 0x564 JUMP JUMPDEST JUMPDEST PUSH2 0x603 DUP3 PUSH2 0x4DA JUMP JUMPDEST SWAP1 POP PUSH1 0x20 DUP2 ADD SWAP1 POP SWAP2 SWAP1 POP JUMP JUMPDEST DUP3 DUP2 DUP4 CALLDATACOPY PUSH1 0x0 DUP4 DUP4 ADD MSTORE POP POP POP JUMP JUMPDEST PUSH1 0x0 PUSH2 0x632 PUSH2 0x62D DUP5 PUSH2 0x5DF JUMP JUMPDEST PUSH2 0x5C4 JUMP JUMPDEST SWAP1 POP DUP3 DUP2 MSTORE PUSH1 0x20 DUP2 ADD DUP5 DUP5 DUP5 ADD GT ISZERO PUSH2 0x64E JUMPI PUSH2 0x64D PUSH2 0x55F JUMP JUMPDEST JUMPDEST PUSH2 0x659 DUP5 DUP3 DUP6 PUSH2 0x610 JUMP JUMPDEST POP SWAP4 SWAP3 POP POP POP JUMP JUMPDEST PUSH1 0x0 DUP3 PUSH1 0x1F DUP4 ADD SLT PUSH2 0x676 JUMPI PUSH2 0x675 PUSH2 0x55A JUMP JUMPDEST JUMPDEST DUP2 CALLDATALOAD PUSH2 0x686 DUP5 DUP3 PUSH1 0x20 DUP7 ADD PUSH2 0x61F JUMP JUMPDEST SWAP2 POP POP SWAP3 SWAP2 POP POP JUMP JUMPDEST PUSH1 0x0 DUP1 PUSH1 0x0 PUSH1 0x60 DUP5 DUP7 SUB SLT ISZERO PUSH2 0x6A8 JUMPI PUSH2 0x6A7 PUSH2 0x550 JUMP JUMPDEST JUMPDEST PUSH1 0x0 DUP5 ADD CALLDATALOAD PUSH8 0xFFFFFFFFFFFFFFFF DUP2 GT ISZERO PUSH2 0x6C6 JUMPI PUSH2 0x6C5 PUSH2 0x555 JUMP JUMPDEST JUMPDEST PUSH2 0x6D2 DUP7 DUP3 DUP8 ADD PUSH2 0x661 JUMP JUMPDEST SWAP4 POP POP PUSH1 0x20 DUP5 ADD CALLDATALOAD PUSH8 0xFFFFFFFFFFFFFFFF DUP2 GT ISZERO PUSH2 0x6F3 JUMPI PUSH2 0x6F2 PUSH2 0x555 JUMP JUMPDEST JUMPDEST PUSH2 0x6FF DUP7 DUP3 DUP8 ADD PUSH2 0x661 JUMP JUMPDEST SWAP3 POP POP PUSH1 0x40 DUP5 ADD CALLDATALOAD PUSH8 0xFFFFFFFFFFFFFFFF DUP2 GT ISZERO PUSH2 0x720 JUMPI PUSH2 0x71F PUSH2 0x555 JUMP JUMPDEST JUMPDEST PUSH2 0x72C DUP7 DUP3 DUP8 ADD PUSH2 0x661 JUMP JUMPDEST SWAP2 POP POP SWAP3 POP SWAP3 POP SWAP3 JUMP JUMPDEST PUSH1 0x0 PUSH1 0x60 DUP3 ADD SWAP1 POP DUP2 DUP2 SUB PUSH1 0x0 DUP4 ADD MSTORE PUSH2 0x750 DUP2 DUP7 PUSH2 0x4EB JUMP JUMPDEST SWAP1 POP DUP2 DUP2 SUB PUSH1 0x20 DUP4 ADD MSTORE PUSH2 0x764 DUP2 DUP6 PUSH2 0x4EB JUMP JUMPDEST SWAP1 POP DUP2 DUP2 SUB PUSH1 0x40 DUP4 ADD MSTORE PUSH2 0x778 DUP2 DUP5 PUSH2 0x4EB JUMP JUMPDEST SWAP1 POP SWAP5 SWAP4 POP POP POP POP JUMP JUMPDEST PUSH32 0x4E487B7100000000000000000000000000000000000000000000000000000000 PUSH1 0x0 MSTORE PUSH1 0x22 PUSH1 0x4 MSTORE PUSH1 0x24 PUSH1 0x0 REVERT JUMPDEST PUSH1 0x0 PUSH1 0x2 DUP3 DIV SWAP1 POP PUSH1 0x1 DUP3 AND DUP1 PUSH2 0x7C9 JUMPI PUSH1 0x7F DUP3 AND SWAP2 POP JUMPDEST PUSH1 0x20 DUP3 LT DUP2 SUB PUSH2 0x7DC JUMPI PUSH2 0x7DB PUSH2 0x782 JUMP JUMPDEST JUMPDEST POP SWAP2 SWAP1 POP JUMP JUMPDEST PUSH1 0x0 DUP2 SWAP1 POP DUP2 PUSH1 0x0 MSTORE PUSH1 0x20 PUSH1 0x0 KECCAK256 SWAP1 POP SWAP2 SWAP1 POP JUMP JUMPDEST PUSH1 0x0 PUSH1 0x20 PUSH1 0x1F DUP4 ADD DIV SWAP1 POP SWAP2 SWAP1 POP JUMP JUMPDEST PUSH1 0x0 DUP3 DUP3 SHL SWAP1 POP SWAP3 SWAP2 POP POP JUMP JUMPDEST PUSH1 0x0 PUSH1 0x8 DUP4 MUL PUSH2 0x844 PUSH32 0xFFFFFFFFFFFFFFFFFFFFFFFFFFFFFFFFFFFFFFFFFFFFFFFFFFFFFFFFFFFFFFFF DUP3 PUSH2 0x807 JUMP JUMPDEST PUSH2 0x84E DUP7 DUP4 PUSH2 0x807 JUMP JUMPDEST SWAP6 POP DUP1 NOT DUP5 AND SWAP4 POP DUP1 DUP7 AND DUP5 OR SWAP3 POP POP POP SWAP4 SWAP3 POP POP POP JUMP JUMPDEST PUSH1 0x0 DUP2 SWAP1 POP SWAP2 SWAP1 POP JUMP JUMPDEST PUSH1 0x0 DUP2 SWAP1 POP SWAP2 SWAP1 POP JUMP JUMPDEST PUSH1 0x0 PUSH2 0x895 PUSH2 0x890 PUSH2 0x88B DUP5 PUSH2 0x866 JUMP JUMPDEST PUSH2 0x870 JUMP JUMPDEST PUSH2 0x866 JUMP JUMPDEST SWAP1 POP SWAP2 SWAP1 POP JUMP JUMPDEST PUSH1 0x0 DUP2 SWAP1 POP SWAP2 SWAP1 POP JUMP JUMPDEST PUSH2 0x8AF DUP4 PUSH2 0x87A JUMP JUMPDEST PUSH2 0x8C3 PUSH2 0x8BB DUP3 PUSH2 0x89C JUMP JUMPDEST DUP5 DUP5 SLOAD PUSH2 0x814 JUMP JUMPDEST DUP3 SSTORE POP POP POP POP JUMP JUMPDEST PUSH1 0x0 SWAP1 JUMP JUMPDEST PUSH2 0x8D8 PUSH2 0x8CB JUMP JUMPDEST PUSH2 0x8E3 DUP2 DUP5 DUP5 PUSH2 0x8A6 JUMP JUMPDEST POP POP POP JUMP JUMPDEST JUMPDEST DUP2 DUP2 LT ISZERO PUSH2 0x907 JUMPI PUSH2 0x8FC PUSH1 0x0 DUP3 PUSH2 0x8D0 JUMP JUMPDEST PUSH1 0x1 DUP2 ADD SWAP1 POP PUSH2 0x8E9 JUMP JUMPDEST POP POP JUMP JUMPDEST PUSH1 0x1F DUP3 GT ISZERO PUSH2 0x94C JUMPI PUSH2 0x91D DUP2 PUSH2 0x7E2 JUMP JUMPDEST PUSH2 0x926 DUP5 PUSH2 0x7F7 JUMP JUMPDEST DUP2 ADD PUSH1 0x20 DUP6 LT ISZERO PUSH2 0x935 JUMPI DUP2 SWAP1 POP JUMPDEST PUSH2 0x949 PUSH2 0x941 DUP6 PUSH2 0x7F7 JUMP JUMPDEST DUP4 ADD DUP3 PUSH2 0x8E8 JUMP JUMPDEST POP POP JUMPDEST POP POP POP JUMP JUMPDEST PUSH1 0x0 DUP3 DUP3 SHR SWAP1 POP SWAP3 SWAP2 POP POP JUMP JUMPDEST PUSH1 0x0 PUSH2 0x96F PUSH1 0x0 NOT DUP5 PUSH1 0x8 MUL PUSH2 0x951 JUMP JUMPDEST NOT DUP1 DUP4 AND SWAP2 POP POP SWAP3 SWAP2 POP POP JUMP JUMPDEST PUSH1 0x0 PUSH2 0x988 DUP4 DUP4 PUSH2 0x95E JUMP JUMPDEST SWAP2 POP DUP3 PUSH1 0x2 MUL DUP3 OR SWAP1 POP SWAP3 SWAP2 POP POP JUMP JUMPDEST PUSH2 0x9A1 DUP3 PUSH2 0x48B JUMP JUMPDEST PUSH8 0xFFFFFFFFFFFFFFFF DUP2 GT ISZERO PUSH2 0x9BA JUMPI PUSH2 0x9B9 PUSH2 0x564 JUMP JUMPDEST JUMPDEST PUSH2 0x9C4 DUP3 SLOAD PUSH2 0x7B1 JUMP JUMPDEST PUSH2 0x9CF DUP3 DUP3 DUP6 PUSH2 0x90B JUMP JUMPDEST PUSH1 0x0 PUSH1 0x20 SWAP1 POP PUSH1 0x1F DUP4 GT PUSH1 0x1 DUP2 EQ PUSH2 0xA02 JUMPI PUSH1 0x0 DUP5 ISZERO PUSH2 0x9F0 JUMPI DUP3 DUP8 ADD MLOAD SWAP1 POP JUMPDEST PUSH2 0x9FA DUP6 DUP3 PUSH2 0x97C JUMP JUMPDEST DUP7 SSTORE POP PUSH2 0xA62 JUMP JUMPDEST PUSH1 0x1F NOT DUP5 AND PUSH2 0xA10 DUP7 PUSH2 0x7E2 JUMP JUMPDEST PUSH1 0x0 JUMPDEST DUP3 DUP2 LT ISZERO PUSH2 0xA38 JUMPI DUP5 DUP10 ADD MLOAD DUP3 SSTORE PUSH1 0x1 DUP3 ADD SWAP2 POP PUSH1 0x20 DUP6 ADD SWAP5 POP PUSH1 0x20 DUP2 ADD SWAP1 POP PUSH2 0xA13 JUMP JUMPDEST DUP7 DUP4 LT ISZERO PUSH2 0xA55 JUMPI DUP5 DUP10 ADD MLOAD PUSH2 0xA51 PUSH1 0x1F DUP10 AND DUP3 PUSH2 0x95E JUMP JUMPDEST DUP4 SSTORE POP JUMPDEST PUSH1 0x1 PUSH1 0x2 DUP9 MUL ADD DUP9 SSTORE POP POP POP JUMPDEST POP POP POP POP POP POP JUMP INVALID LOG2 PUSH5 0x6970667358 0x22 SLT KECCAK256 0xEA 0xEC SWAP11 SELFBALANCE 0xE8 SWAP6 PUSH7 0xCA829339AA7336 PUSH1 0xC3 PUSH27 0x751DF0A3FDCC9EF9EF7063C9BED87B64736F6C634300080F003300 "
				},
				"gasEstimates": {
					"creation": {
						"codeDepositCost": "544000",
						"executionCost": "infinite",
						"totalCost": "infinite"
					},
					"external": {
						"acceptance()": "infinite",
						"email()": "infinite",
						"getEmailReceipt()": "infinite",
						"setEmailReceipt(string,string,string)": "infinite",
						"timeStampResponse()": "infinite"
					}
				},
				"methodIdentifiers": {
					"acceptance()": "6d736689",
					"email()": "820e93f5",
					"getEmailReceipt()": "e76fe515",
					"setEmailReceipt(string,string,string)": "9749a2f0",
					"timeStampResponse()": "a6c83aa6"
				}
			},
			"storageLayout": {
				"storage": [
					{
						"astId": 3,
						"contract": "contracts/EmailReceipt_Contract.sol:EmailReceipt_Contract",
						"label": "email",
						"offset": 0,
						"slot": "0",
						"type": "t_string_storage"
					},
					{
						"astId": 5,
						"contract": "contracts/EmailReceipt_Contract.sol:EmailReceipt_Contract",
						"label": "acceptance",
						"offset": 0,
						"slot": "1",
						"type": "t_string_storage"
					},
					{
						"astId": 7,
						"contract": "contracts/EmailReceipt_Contract.sol:EmailReceipt_Contract",
						"label": "timeStampResponse",
						"offset": 0,
						"slot": "2",
						"type": "t_string_storage"
					}
				],
				"types": {
					"t_string_storage": {
						"encoding": "bytes",
						"label": "string",
						"numberOfBytes": "32"
					}
				}
			},
			"userdoc": {
				"kind": "user",
				"methods": {},
				"version": 1
			}
		}
	}
}