{
  "contractName": "Pet_Contract",
  "abi": [
    {
      "inputs": [],
      "name": "petAge",
      "outputs": [
        {
          "internalType": "string",
          "name": "",
          "type": "string"
        }
      ],
      "stateMutability": "view",
      "type": "function",
      "constant": true
    },
    {
      "inputs": [],
      "name": "petName",
      "outputs": [
        {
          "internalType": "string",
          "name": "",
          "type": "string"
        }
      ],
      "stateMutability": "view",
      "type": "function",
      "constant": true
    },
    {
      "inputs": [],
      "name": "petOwner",
      "outputs": [
        {
          "internalType": "string",
          "name": "",
          "type": "string"
        }
      ],
      "stateMutability": "view",
      "type": "function",
      "constant": true
    },
    {
      "inputs": [
        {
          "internalType": "string",
          "name": "newPetName",
          "type": "string"
        },
        {
          "internalType": "string",
          "name": "newPetOwner",
          "type": "string"
        },
        {
          "internalType": "string",
          "name": "newPetAge",
          "type": "string"
        }
      ],
      "name": "setPet",
      "outputs": [],
      "stateMutability": "nonpayable",
      "type": "function"
    },
    {
      "inputs": [],
      "name": "getPet",
      "outputs": [
        {
          "internalType": "string",
          "name": "",
          "type": "string"
        },
        {
          "internalType": "string",
          "name": "",
          "type": "string"
        },
        {
          "internalType": "string",
          "name": "",
          "type": "string"
        }
      ],
      "stateMutability": "view",
      "type": "function",
      "constant": true
    }
  ],
  "bytecode": "0x608060405234801561001057600080fd5b50610aa0806100206000396000f3fe608060405234801561001057600080fd5b50600436106100575760003560e01c80634b2c979c1461005c578063871c8c671461007a5780638cf3375d1461009857806390373d53146100b8578063be468181146100d4575b600080fd5b6100646100f2565b6040516100719190610524565b60405180910390f35b610082610180565b60405161008f9190610524565b60405180910390f35b6100a061020e565b6040516100af93929190610546565b60405180910390f35b6100d260048036038101906100cd91906106db565b6103c8565b005b6100dc6103fd565b6040516100e99190610524565b60405180910390f35b600080546100ff906107b1565b80601f016020809104026020016040519081016040528092919081815260200182805461012b906107b1565b80156101785780601f1061014d57610100808354040283529160200191610178565b820191906000526020600020905b81548152906001019060200180831161015b57829003601f168201915b505050505081565b6002805461018d906107b1565b80601f01602080910402602001604051908101604052809291908181526020018280546101b9906107b1565b80156102065780601f106101db57610100808354040283529160200191610206565b820191906000526020600020905b8154815290600101906020018083116101e957829003601f168201915b505050505081565b6060806060600260006001828054610225906107b1565b80601f0160208091040260200160405190810160405280929190818152602001828054610251906107b1565b801561029e5780601f106102735761010080835404028352916020019161029e565b820191906000526020600020905b81548152906001019060200180831161028157829003601f168201915b505050505092508180546102b1906107b1565b80601f01602080910402602001604051908101604052809291908181526020018280546102dd906107b1565b801561032a5780601f106102ff5761010080835404028352916020019161032a565b820191906000526020600020905b81548152906001019060200180831161030d57829003601f168201915b5050505050915080805461033d906107b1565b80601f0160208091040260200160405190810160405280929190818152602001828054610369906107b1565b80156103b65780601f1061038b576101008083540402835291602001916103b6565b820191906000526020600020905b81548152906001019060200180831161039957829003601f168201915b50505050509050925092509250909192565b82600090816103d79190610998565b5081600190816103e79190610998565b5080600290816103f79190610998565b50505050565b6001805461040a906107b1565b80601f0160208091040260200160405190810160405280929190818152602001828054610436906107b1565b80156104835780601f1061045857610100808354040283529160200191610483565b820191906000526020600020905b81548152906001019060200180831161046657829003601f168201915b505050505081565b600081519050919050565b600082825260208201905092915050565b60005b838110156104c55780820151818401526020810190506104aa565b838111156104d4576000848401525b50505050565b6000601f19601f8301169050919050565b60006104f68261048b565b6105008185610496565b93506105108185602086016104a7565b610519816104da565b840191505092915050565b6000602082019050818103600083015261053e81846104eb565b905092915050565b6000606082019050818103600083015261056081866104eb565b9050818103602083015261057481856104eb565b9050818103604083015261058881846104eb565b9050949350505050565b6000604051905090565b600080fd5b600080fd5b600080fd5b600080fd5b7f4e487b7100000000000000000000000000000000000000000000000000000000600052604160045260246000fd5b6105e8826104da565b810181811067ffffffffffffffff82111715610607576106066105b0565b5b80604052505050565b600061061a610592565b905061062682826105df565b919050565b600067ffffffffffffffff821115610646576106456105b0565b5b61064f826104da565b9050602081019050919050565b82818337600083830152505050565b600061067e6106798461062b565b610610565b90508281526020810184848401111561069a576106996105ab565b5b6106a584828561065c565b509392505050565b600082601f8301126106c2576106c16105a6565b5b81356106d284826020860161066b565b91505092915050565b6000806000606084860312156106f4576106f361059c565b5b600084013567ffffffffffffffff811115610712576107116105a1565b5b61071e868287016106ad565b935050602084013567ffffffffffffffff81111561073f5761073e6105a1565b5b61074b868287016106ad565b925050604084013567ffffffffffffffff81111561076c5761076b6105a1565b5b610778868287016106ad565b9150509250925092565b7f4e487b7100000000000000000000000000000000000000000000000000000000600052602260045260246000fd5b600060028204905060018216806107c957607f821691505b6020821081036107dc576107db610782565b5b50919050565b60008190508160005260206000209050919050565b60006020601f8301049050919050565b600082821b905092915050565b6000600883026108447fffffffffffffffffffffffffffffffffffffffffffffffffffffffffffffffff82610807565b61084e8683610807565b95508019841693508086168417925050509392505050565b6000819050919050565b6000819050919050565b600061089561089061088b84610866565b610870565b610866565b9050919050565b6000819050919050565b6108af8361087a565b6108c36108bb8261089c565b848454610814565b825550505050565b600090565b6108d86108cb565b6108e38184846108a6565b505050565b5b81811015610907576108fc6000826108d0565b6001810190506108e9565b5050565b601f82111561094c5761091d816107e2565b610926846107f7565b81016020851015610935578190505b610949610941856107f7565b8301826108e8565b50505b505050565b600082821c905092915050565b600061096f60001984600802610951565b1980831691505092915050565b6000610988838361095e565b9150826002028217905092915050565b6109a18261048b565b67ffffffffffffffff8111156109ba576109b96105b0565b5b6109c482546107b1565b6109cf82828561090b565b600060209050601f831160018114610a0257600084156109f0578287015190505b6109fa858261097c565b865550610a62565b601f198416610a10866107e2565b60005b82811015610a3857848901518255600182019150602085019450602081019050610a13565b86831015610a555784890151610a51601f89168261095e565b8355505b6001600288020188555050505b50505050505056fea2646970667358221220781b8696c1cda094210ef0c4d9da6dd1f172192f8f8672b6060bd8bede3c002264736f6c634300080f0033",
  "immutableReferences": {},
  "source": "// SPDX-License-Identifier: MIT\npragma solidity ^ 0.8.13;\n\n// 1. Creating a new pet contract\ncontract Pet_Contract{\n\n    // 2. Declaring our smart contract state variables\n    string public petName;\n    string public petOwner;\n    string public petAge;\n\n    // 3. Creating a set pet function\n    function setPet(\n        string memory newPetName,\n        string memory newPetOwner,\n        string memory newPetAge\n    ) public {\n        petName = newPetName;\n        petOwner = newPetOwner;\n        petAge = newPetAge;\n    }\n\n    // 4. Creating a fetch pet function\n    function getPet() public view returns (\n        string memory,\n        string memory,\n        string memory\n    ){\n        return (petAge, petName, petOwner);\n    }\n}\n",
  "sourcePath": "/Users/achan/eth-mail/pet-storage/contracts/Pet_Contract.sol",
  "compiler": {
    "name": "solc",
    "version": "0.8.15+commit.e14f2714.Emscripten.clang"
  },
  "schemaVersion": "3.4.8",
  "updatedAt": "2022-07-12T08:41:24.450Z",
  "networkType": "ethereum",
  "devdoc": {
    "kind": "dev",
    "methods": {},
    "version": 1
  },
  "userdoc": {
    "kind": "user",
    "methods": {},
    "version": 1
  }
}