{
  "contractName": "EmailReceipt_Contract",
  "abi": [
    {
      "inputs": [
        {
          "internalType": "string",
          "name": "_email",
          "type": "string"
        },
        {
          "internalType": "string",
          "name": "_acceptance",
          "type": "string"
        },
        {
          "internalType": "string",
          "name": "_timeStampResponse",
          "type": "string"
        }
      ],
      "stateMutability": "nonpayable",
      "type": "constructor"
    },
    {
      "inputs": [],
      "name": "acceptance",
      "outputs": [
        {
          "internalType": "string",
          "name": "",
          "type": "string"
        }
      ],
      "stateMutability": "view",
      "type": "function"
    },
    {
      "inputs": [],
      "name": "email",
      "outputs": [
        {
          "internalType": "string",
          "name": "",
          "type": "string"
        }
      ],
      "stateMutability": "view",
      "type": "function"
    },
    {
      "inputs": [],
      "name": "timeStampResponse",
      "outputs": [
        {
          "internalType": "string",
          "name": "",
          "type": "string"
        }
      ],
      "stateMutability": "view",
      "type": "function"
    },
    {
      "inputs": [
        {
          "internalType": "string",
          "name": "newEmail",
          "type": "string"
        },
        {
          "internalType": "string",
          "name": "newAcceptance",
          "type": "string"
        },
        {
          "internalType": "string",
          "name": "newTimeStampResponse",
          "type": "string"
        }
      ],
      "name": "setEmailReceipt",
      "outputs": [],
      "stateMutability": "nonpayable",
      "type": "function"
    },
    {
      "inputs": [],
      "name": "getEmailReceipt",
      "outputs": [
        {
          "internalType": "string",
          "name": "",
          "type": "string"
        },
        {
          "internalType": "string",
          "name": "",
          "type": "string"
        },
        {
          "internalType": "string",
          "name": "",
          "type": "string"
        }
      ],
      "stateMutability": "view",
      "type": "function"
    }
  ],
  "bytecode": "0x60806040523480156200001157600080fd5b50604051620010ae380380620010ae833981810160405281019062000037919062000213565b826000908162000048919062000517565b5081600190816200005a919062000517565b5080600290816200006c919062000517565b50505050620005fe565b6000604051905090565b600080fd5b600080fd5b600080fd5b600080fd5b6000601f19601f8301169050919050565b7f4e487b7100000000000000000000000000000000000000000000000000000000600052604160045260246000fd5b620000df8262000094565b810181811067ffffffffffffffff82111715620001015762000100620000a5565b5b80604052505050565b60006200011662000076565b9050620001248282620000d4565b919050565b600067ffffffffffffffff821115620001475762000146620000a5565b5b620001528262000094565b9050602081019050919050565b60005b838110156200017f57808201518184015260208101905062000162565b838111156200018f576000848401525b50505050565b6000620001ac620001a68462000129565b6200010a565b905082815260208101848484011115620001cb57620001ca6200008f565b5b620001d88482856200015f565b509392505050565b600082601f830112620001f857620001f76200008a565b5b81516200020a84826020860162000195565b91505092915050565b6000806000606084860312156200022f576200022e62000080565b5b600084015167ffffffffffffffff81111562000250576200024f62000085565b5b6200025e86828701620001e0565b935050602084015167ffffffffffffffff81111562000282576200028162000085565b5b6200029086828701620001e0565b925050604084015167ffffffffffffffff811115620002b457620002b362000085565b5b620002c286828701620001e0565b9150509250925092565b600081519050919050565b7f4e487b7100000000000000000000000000000000000000000000000000000000600052602260045260246000fd5b600060028204905060018216806200031f57607f821691505b602082108103620003355762000334620002d7565b5b50919050565b60008190508160005260206000209050919050565b60006020601f8301049050919050565b600082821b905092915050565b6000600883026200039f7fffffffffffffffffffffffffffffffffffffffffffffffffffffffffffffffff8262000360565b620003ab868362000360565b95508019841693508086168417925050509392505050565b6000819050919050565b6000819050919050565b6000620003f8620003f2620003ec84620003c3565b620003cd565b620003c3565b9050919050565b6000819050919050565b6200041483620003d7565b6200042c6200042382620003ff565b8484546200036d565b825550505050565b600090565b6200044362000434565b6200045081848462000409565b505050565b5b8181101562000478576200046c60008262000439565b60018101905062000456565b5050565b601f821115620004c75762000491816200033b565b6200049c8462000350565b81016020851015620004ac578190505b620004c4620004bb8562000350565b83018262000455565b50505b505050565b600082821c905092915050565b6000620004ec60001984600802620004cc565b1980831691505092915050565b6000620005078383620004d9565b9150826002028217905092915050565b6200052282620002cc565b67ffffffffffffffff8111156200053e576200053d620000a5565b5b6200054a825462000306565b620005578282856200047c565b600060209050601f8311600181146200058f57600084156200057a578287015190505b620005868582620004f9565b865550620005f6565b601f1984166200059f866200033b565b60005b82811015620005c957848901518255600182019150602085019450602081019050620005a2565b86831015620005e95784890151620005e5601f891682620004d9565b8355505b6001600288020188555050505b505050505050565b610aa0806200060e6000396000f3fe608060405234801561001057600080fd5b50600436106100575760003560e01c80636d7366891461005c578063820e93f51461007a5780639749a2f014610098578063a6c83aa6146100b4578063e76fe515146100d2575b600080fd5b6100646100f2565b6040516100719190610524565b60405180910390f35b610082610180565b60405161008f9190610524565b60405180910390f35b6100b260048036038101906100ad919061068f565b61020e565b005b6100bc610243565b6040516100c99190610524565b60405180910390f35b6100da6102d1565b6040516100e993929190610736565b60405180910390f35b600180546100ff906107b1565b80601f016020809104026020016040519081016040528092919081815260200182805461012b906107b1565b80156101785780601f1061014d57610100808354040283529160200191610178565b820191906000526020600020905b81548152906001019060200180831161015b57829003601f168201915b505050505081565b6000805461018d906107b1565b80601f01602080910402602001604051908101604052809291908181526020018280546101b9906107b1565b80156102065780601f106101db57610100808354040283529160200191610206565b820191906000526020600020905b8154815290600101906020018083116101e957829003601f168201915b505050505081565b826000908161021d9190610998565b50816001908161022d9190610998565b50806002908161023d9190610998565b50505050565b60028054610250906107b1565b80601f016020809104026020016040519081016040528092919081815260200182805461027c906107b1565b80156102c95780601f1061029e576101008083540402835291602001916102c9565b820191906000526020600020905b8154815290600101906020018083116102ac57829003601f168201915b505050505081565b60608060606000600160028280546102e8906107b1565b80601f0160208091040260200160405190810160405280929190818152602001828054610314906107b1565b80156103615780601f1061033657610100808354040283529160200191610361565b820191906000526020600020905b81548152906001019060200180831161034457829003601f168201915b50505050509250818054610374906107b1565b80601f01602080910402602001604051908101604052809291908181526020018280546103a0906107b1565b80156103ed5780601f106103c2576101008083540402835291602001916103ed565b820191906000526020600020905b8154815290600101906020018083116103d057829003601f168201915b50505050509150808054610400906107b1565b80601f016020809104026020016040519081016040528092919081815260200182805461042c906107b1565b80156104795780601f1061044e57610100808354040283529160200191610479565b820191906000526020600020905b81548152906001019060200180831161045c57829003601f168201915b50505050509050925092509250909192565b600081519050919050565b600082825260208201905092915050565b60005b838110156104c55780820151818401526020810190506104aa565b838111156104d4576000848401525b50505050565b6000601f19601f8301169050919050565b60006104f68261048b565b6105008185610496565b93506105108185602086016104a7565b610519816104da565b840191505092915050565b6000602082019050818103600083015261053e81846104eb565b905092915050565b6000604051905090565b600080fd5b600080fd5b600080fd5b600080fd5b7f4e487b7100000000000000000000000000000000000000000000000000000000600052604160045260246000fd5b61059c826104da565b810181811067ffffffffffffffff821117156105bb576105ba610564565b5b80604052505050565b60006105ce610546565b90506105da8282610593565b919050565b600067ffffffffffffffff8211156105fa576105f9610564565b5b610603826104da565b9050602081019050919050565b82818337600083830152505050565b600061063261062d846105df565b6105c4565b90508281526020810184848401111561064e5761064d61055f565b5b610659848285610610565b509392505050565b600082601f8301126106765761067561055a565b5b813561068684826020860161061f565b91505092915050565b6000806000606084860312156106a8576106a7610550565b5b600084013567ffffffffffffffff8111156106c6576106c5610555565b5b6106d286828701610661565b935050602084013567ffffffffffffffff8111156106f3576106f2610555565b5b6106ff86828701610661565b925050604084013567ffffffffffffffff8111156107205761071f610555565b5b61072c86828701610661565b9150509250925092565b6000606082019050818103600083015261075081866104eb565b9050818103602083015261076481856104eb565b9050818103604083015261077881846104eb565b9050949350505050565b7f4e487b7100000000000000000000000000000000000000000000000000000000600052602260045260246000fd5b600060028204905060018216806107c957607f821691505b6020821081036107dc576107db610782565b5b50919050565b60008190508160005260206000209050919050565b60006020601f8301049050919050565b600082821b905092915050565b6000600883026108447fffffffffffffffffffffffffffffffffffffffffffffffffffffffffffffffff82610807565b61084e8683610807565b95508019841693508086168417925050509392505050565b6000819050919050565b6000819050919050565b600061089561089061088b84610866565b610870565b610866565b9050919050565b6000819050919050565b6108af8361087a565b6108c36108bb8261089c565b848454610814565b825550505050565b600090565b6108d86108cb565b6108e38184846108a6565b505050565b5b81811015610907576108fc6000826108d0565b6001810190506108e9565b5050565b601f82111561094c5761091d816107e2565b610926846107f7565b81016020851015610935578190505b610949610941856107f7565b8301826108e8565b50505b505050565b600082821c905092915050565b600061096f60001984600802610951565b1980831691505092915050565b6000610988838361095e565b9150826002028217905092915050565b6109a18261048b565b67ffffffffffffffff8111156109ba576109b9610564565b5b6109c482546107b1565b6109cf82828561090b565b600060209050601f831160018114610a0257600084156109f0578287015190505b6109fa858261097c565b865550610a62565b601f198416610a10866107e2565b60005b82811015610a3857848901518255600182019150602085019450602081019050610a13565b86831015610a555784890151610a51601f89168261095e565b8355505b6001600288020188555050505b50505050505056fea26469706673582212203fd019e3bb3f6889f570d8d4f4ac2f5febde9c3d22647b5c975e3f0c1c0be68164736f6c634300080f0033",
  "immutableReferences": {},
  "source": "// SPDX-License-Identifier: MIT\npragma solidity ^ 0.8.13;\n\n// 1. Creating a new contract\ncontract EmailReceipt_Contract{\n    // 2. Declaring our smart contract state variables\n    string public email;\n    string public acceptance;\n    string public timeStampResponse;\n\n    constructor(\n        // User email\n        string memory _email,\n        // True if the user accepted the email\n        string memory _acceptance,\n        string memory _timeStampResponse\n    ) public {\n        email = _email;\n        acceptance = _acceptance;\n        timeStampResponse = _timeStampResponse;\n    }\n\n    // 3. Creating a set function\n    function setEmailReceipt(\n        string memory newEmail,\n        string memory newAcceptance,\n        string memory newTimeStampResponse\n    ) public {\n        email = newEmail;\n        acceptance = newAcceptance;\n        timeStampResponse = newTimeStampResponse;\n    }\n\n    // 4. Creating a fetch function\n    function getEmailReceipt() public view returns (\n        string memory,\n        string memory,\n        string memory\n    ){\n        return (email, acceptance, timeStampResponse);\n    }\n}\n",
  "sourcePath": "/Users/achan/eth-mail/src/receipt-storage/contracts/EmailReceipt_Contract.sol",
  "compiler": {
    "name": "solc",
    "version": "0.8.15+commit.e14f2714.Emscripten.clang"
  },
  "schemaVersion": "3.4.8",
  "updatedAt": "2022-07-12T16:06:58.246Z",
  "devdoc": {
    "kind": "dev",
    "methods": {},
    "version": 1
  },
  "userdoc": {
    "kind": "user",
    "methods": {},
    "version": 1
  }
}